:020000040800F2
:10000000C8060020AD010008B5010008B7010008CE
:10001000B9010008BB010008BD0100080000000094
:10002000000000000000000000000000BF01000808
:10003000C101000800000000C30100087D1C000889
:10004000C7010008C7010008C7010008C701000870
:10005000C7010008C7010008C7010008C701000860
:10006000C7010008C7010008C7010008C701000850
:10007000C7010008C7010008C7010008C701000840
:10008000C7010008C7010008C70100080000000000
:10009000000000000000000000000000C701000890
:1000A000C7010008C7010008C7010008C701000810
:1000B000C7010008C7010008C7010008C701000800
:1000C000C7010008C7010008C7010008C7010008F0
:1000D000C7010008C7010008C701000800000000B0
:1000E000C7010008C7010008C701000800000000A0
:1000F000000000000000000000000000C701000830
:1001000000000000C7010008C7010008C70100087F
:1001100000000000000000000000000000000000DF
:10012000C7010008C7010008C7010008C70100088F
:10013000C7010008000000000000000000000000EF
:10014000000000000000000000000000C7010008DF
:10015000C7010008C7010008C7010008C70100085F
:10016000C7010008C70100080000000000000000EF
:10017000000000000000000000000000000000007F
:1001800000000000C701000800000000000000009F
:10019000C7010008C7010008DFF80CD000F018F80C
:1001A000004800472D230008C80600200648804765
:1001B00006480047FEE7FEE7FEE7FEE7FEE7FEE74C
:1001C000FEE7FEE7FEE7FEE71D1D000899010008B7
:1001D000064C074D06E0E06840F0010394E8070094
:1001E00098471034AC42F6D3FFF7DAFFAC2300088F
:1001F000CC23000830B504460020651804E000BF99
:1002000014F8011B01F0A1FFAC42F9D3002101F069
:100210009CFFBDE83040002101F097BF70B50E464D
:1002200004004FF0000512D0012C10D0022C0ED08B
:10023000032C0CD0042C0AD0052C08D0062C06D098
:10024000072C04D040F2E13119A002F06EF866B13B
:10025000012E29D0022E24D0032E04D040F2E23108
:1002600013A002F062F84FF440752148016821F4B0
:1002700040710160016829430160016821F0F801C3
:1002800001600168F82292FAA2F2B2FA82F2944076
:1002900044F0020211430160016841F480310160C1
:1002A00070BD4FF40075E0E74FF48075DDE70000A6
:1002B0002E2E2F447269766572732F53544D33324C
:1002C000463478785F48414C5F4472697665722F96
:1002D0005372632F73746D3332663478785F68615C
:1002E0006C5F666C6173685F65782E630000000068
:1002F000103C02401348016889050FD5016821F4BC
:1003000000710160016841F400610160016821F43D
:1003100000610160016841F40071016001684905F4
:100320000FD5016821F480610160016841F48051BA
:100330000160016821F480510160016841F480612D
:1003400001607047003C024010B586B0002405945F
:1003500000F01AFB032002900120CDE900400521A6
:100360000220CDE9031005A9684600F017FA0446FB
:1003700000F098FA14B1012006B010BD0020FBE790
:100380002DE9F041164688460546002400F0FCFAA7
:100390000E4F13E058F8242000232946022000F0D5
:1003A0008BFA10B10320BDE8F08158F824002968C9
:1003B000814201D00220F6E7641C2D1DB44201D217
:1003C000BD42E7D900F06EFA0020ECE7FBFF07081A
:1003D00070B50D4604000AD0012C08D0022C06D0BE
:1003E000032C04D040F2C2310DA001F09EFF012D7C
:1003F00004D040F2C3310AA001F097FF1848016809
:1004000021F440710160016841F00401016001685C
:100410004FF4803242EA04221143016070BD0000B3
:100420002E2E2F447269766572732F53544D3332DA
:10043000463478785F48414C5F4472697665722F24
:100440005372632F73746D3332663478785F6861EA
:100450006C5F666C6173685F65782E6300000000F6
:10046000103C024070B50446A0F100600D46B0F5A6
:10047000002F04D34FF42E7107A001F056FF154A48
:10048000106820F44070106010681060106840F030
:1004900001001060257070BD2E2E2F4472697665A4
:1004A00072732F53544D3332463478785F48414C41
:1004B0005F4472697665722F5372632F73746D3364
:1004C00032663478785F68616C5F666C6173682E41
:1004D00063000000103C024070B50446A0F10060CB
:1004E00015461E46B0F5002F04D34FF41B7109A02A
:1004F00001F01BFF1649086820F440700860086886
:1005000040F440700860086840F001000860256011
:10051000666070BD2E2E2F447269766572732F53FC
:10052000544D3332463478785F48414C5F447269A9
:100530007665722F5372632F73746D33326634781D
:10054000785F68616C5F666C6173682E63000000A1
:10055000103C024070B50446A0F100600D46B0F5B5
:10056000002F04D340F29F2108A001F0DEFE164ABE
:10057000106820F440701060106840F480701060C3
:10058000106840F001001060258070BD2E2E2F44B1
:100590007269766572732F53544D333246347878CE
:1005A0005F48414C5F4472697665722F5372632FC6
:1005B00073746D3332663478785F68616C5F666C33
:1005C0006173682E63000000103C024070B5044661
:1005D000A0F100600D46B0F5002F04D340F2862153
:1005E00008A001F0A2FE164A106820F440701060C6
:1005F000106840F400701060106840F00100106056
:10060000256070BD2E2E2F447269766572732F534C
:10061000544D3332463478785F48414C5F447269B8
:100620007665722F5372632F73746D33326634782C
:10063000785F68616C5F666C6173682E63000000B0
:10064000103C02401F490868C043C2061E4805D43A
:10065000C26942F01002C26110220A600A68D243E5
:10066000920605D4C26942F00802C26120220A60E3
:100670000A68D243520605D4C26942F00402C2613C
:1006800040220A600A68D243120605D4C26942F0C9
:100690000202C26180220A600A68D243D20506D4EF
:1006A000C26942F00102C2614FF480720A600A68B6
:1006B000D243920705D4C26942F02002C2610220EF
:1006C000086070470C3C02401C00002070B51349C4
:1006D00004460020C86100F02DFB0646104D09E0DD
:1006E000601C07D024B100F025FB801BA04201D97B
:1006F000032070BD2868C043C003F1D52868C00737
:1007000001D00120286029684FF4F970884301D096
:10071000002070BDFFF796FF012070BD1C00002077
:100720000C3C024010B504000AD00C4920688842F5
:1007300003D079210AA001F0F8FD607910B106E03C
:10074000012010BD00202071204600F025F8022075
:10075000607101206071002010BD00000030024077
:100760002E2E5C447269766572735C53544D33323D
:10077000463478785F48414C5F4472697665725CB4
:100780005372635C73746D3332663478785F68617A
:100790006C5F6372632E6300704700002DE9F047C1
:1007A00004462E480F46017E012912D001218146C0
:1007B0000176206828B1012803D0BB2128A001F0D0
:1007C000B4FD4CF2503A5046FFF780FF060003D0CC
:1007D0003EE00220BDE8F0874FF0FF30386020682F
:1007E000DFF8BC8001280BD0D4E90210401801D0FA
:1007F000082803D9D3211AA001F097FDA56820E0AD
:10080000207C6168FFF7E4FD5046FFF75FFFD8F8F2
:100810000010064621F00401C8F8001016E0217C03
:100820002846FFF7FBFC5046FFF750FFD8F80010B2
:10083000060021F0FA01C8F8001001D03D6005E083
:100840006D1CD4E902100844A842E8D8FFF752FD15
:10085000002189F818103046BCE700001C00002079
:100860002E2E2F447269766572732F53544D333296
:10087000463478785F48414C5F4472697665722FE0
:100880005372632F73746D3332663478785F6861A6
:100890006C5F666C6173685F65782E6300000000B2
:1008A000103C02400348016841F000410160002013
:1008B00070470000103C02402DE9F047214E0546EC
:1008C0001446307E1F468946012813D00120307619
:1008D0004DB1012D07D0022D05D0032D03D0B62137
:1008E00019A001F022FD4CF250384046FFF7EEFE11
:1008F00018B114E00220BDE8F0879DB1012D16D09B
:10090000022D19D022463B464846FFF7E5FD4046FA
:10091000FFF7DCFE1B490A6822F001020A60002191
:100920003176E8E7E1B24846FFF79CFDEFE7A1B278
:100930004846FFF70FFEEAE721464846FFF746FE26
:10094000E5E700001C0000202E2E2F44726976651A
:1009500072732F53544D3332463478785F48414C8C
:100960005F4472697665722F5372632F73746D33AF
:1009700032663478785F68616C5F666C6173682E8C
:1009800063000000103C024006480068002807DAB7
:10099000044805490C380160044901600020704793
:1009A00001207047103C024023016745AB89EFCD21
:1009B0002DE9F84F044690480D46844212D08F48E6
:1009C00084420FD08E4884420CD08E48844209D095
:1009D0008D48844206D08D48844203D0C5218CA026
:1009E00001F0A3FC28880004000C03D1C62188A0D4
:1009F00001F09BFC6868F8B101281DD011281BD0BC
:100A0000022819D0122817D09049884214D0904952
:100A1000884211D08F4988420ED08F4988420BD02E
:100A20008E49884208D08E49884205D0032803D0D9
:100A3000C72177A001F079FCA86838B1012805D05A
:100A4000022803D0C82172A001F06FFC00264FF0ED
:100A5000010B00BF0BFA06F02F688246074057458E
:100A60007ED16868022801D0122828D12869C8B12F
:100A7000092817D0012815D0022813D0042811D036
:100A800005280FD006280DD007280BD0082809D03C
:100A90000A2807D00C2805D00F2803D0D9215CA044
:100AA00001F043FCF00804EB8002106A7107CB0EE2
:100AB0000F219940884329699940014311622068B8
:100AC0007100032202FA01F82A79894602F0030232
:100AD00020EA080002FA09F202432260686801284D
:100AE00005D0022803D0112801D012281CD1E868B3
:100AF00048B1012807D0022805D0032803D0EC21F3
:100B000043A001F012FCA068E96820EA080001FA9D
:100B100009F10143A1606168287921EA0A01C0F363
:100B20000010B04008436060E068A96820EA08004F
:100B300001FA09F10143E1606868C00056D54948EF
:100B4000016841F480410160006826F0030100F46F
:100B50008040009044480144D1F80838B00700E0D4
:100B600044E0020F0F20904083432348844201D188
:100B7000002014E02148844201D101200FE02048E8
:100B8000844201D102200AE01E48844201D10320A0
:100B900005E01D48844201D1042000E0052090407A
:100BA0001843C1F80808314908686A68B843D20395
:100BB00000D5384308602D49091D08686A68B843A4
:100BC000920300D5384308602849083108686A68EC
:100BD000B843D20200D53843086024490C31086874
:100BE0006A68B843920200D538430860761C102E1C
:100BF000FFF430AFBDE8F88F00000240000402406F
:100C000000080240000C024000100240001C02409C
:100C10002E2E2F447269766572732F53544D3332E2
:100C2000463478785F48414C5F4472697665722F2C
:100C30005372632F73746D3332663478785F6861F2
:100C40006C5F6770696F2E63000000000000111078
:100C500000002110000031100000121000002210CE
:100C6000000032104438024000300140003C014096
:100C700070B50C00054604D14FF4E47103A001F0F7
:100C800054FB68696040686170BD00002E2E2F44DF
:100C90007269766572732F53544D333246347878C7
:100CA0005F48414C5F4472697665722F5372632FBF
:100CB00073746D3332663478785F68616C5F677027
:100CC000696F2E630000000070B515460C000646E3
:100CD00004D140F2B11108A001F027FB45B1012D6C
:100CE00004D04FF4D97104A001F01FFBB46170BDB2
:100CF0002004B06170BD00002E2E2F44726976650D
:100D000072732F53544D3332463478785F48414CD8
:100D10005F4472697665722F5372632F73746D33FB
:100D200032663478785F68616C5F6770696F2E63D4
:100D3000000000000148006870470000000000202B
:100D400002480168491C0160704700000000002053
:100D50000B4810B5016841F400710160016841F46D
:100D600080610160016841F480710160032000F03E
:100D700075F8002000F006F800F015F8002010BD0E
:100D8000003C024010B5044600F0CEF94FF47A71F1
:100D9000B0FBF1F000F081FC00222146501E00F073
:100DA0000DF8002010BD10B5052000F057F8002206
:100DB000BDE810401146501EAFF3008070B51546D7
:100DC0000C460646102A03D3BC2114A001F0ADFA4C
:100DD000102C03D3BD2111A001F0A7FA1E48006812
:100DE000C0F30223C3F107022046042A00D90422DB
:100DF000191D072901D2002300E0DB1E012404FA9B
:100E000002F1491E014099409C40641E2C40214340
:100E10003046BDE8704000F03FBE00002E2E2F444B
:100E20007269766572732F53544D33324634787835
:100E30005F48414C5F4472697665722F5372632F2D
:100E400073746D3332663478785F68616C5F636F9A
:100E5000727465782E6300000CED00E010B5044656
:100E600007280BD0062C09D0052C07D0042C05D060
:100E7000032C03D0A42108A001F057FA154904F06F
:100E8000070208684FF6FF03184040EA0220124AA2
:100E90001043086010BD00002E2E2F447269766545
:100EA00072732F53544D3332463478785F48414C37
:100EB0005F4472697665722F5372632F73746D335A
:100EC00032663478785F68616C5F636F72746578DE
:100ED0002E6300000CED00E00000FA052DE9F0475C
:100EE000044600680D46401E0E2804D94FF40E71CA
:100EF0007DA001F01AFA95B1012D10D0022D0ED06F
:100F0000032D0CD0042D0AD0052D08D0062D06D0B7
:100F1000072D04D040F2392173A001F006FADFF862
:100F200000A2DAF8000000F00F01E8B28146A94201
:100F300008D201468AF80010DAF8000000F00F002D
:100F4000A8426ED12078774E80071CD5A068A0B14A
:100F5000802812D0902810D0A0280ED0B0280CD015
:100F6000C0280AD0D02808D0E02806D0F02804D025
:100F70004FF414715CA001F0D8F93068A16820F03A
:100F8000F000084330602078C0075FD0654F60688C
:100F9000083F88B1012826D0022827D0032825D071
:100FA00040F2572150A001F0C0F9606801281AD022
:100FB00002281BD0032819D038688007002853DA8C
:100FC0003068616820F0030008433060FFF7B2FE2C
:100FD0000746606841F28838012810D002281AD0EC
:100FE00003281FD02EE038688003E7E738688001C7
:100FF000E4E700BFFFF79EFEC11B41451FD83068E4
:10100000C0F381000128F5D120E000BFFFF792FE78
:10101000C11B414513D83068C0F381000228F5D1C7
:1010200014E021E03068FFF785FEC01B4045F9D988
:1010300005E000BFFFF77EFEC11B414502D903203A
:10104000BDE8F087306810F00C0FF3D1DAF800102B
:10105000504601F00F01A94208D980F800900068BD
:1010600000F00F00A84201D00120E9E720784FF4FA
:10107000805540074FF4A0574FF4C0584FF4E05943
:1010800014D5E06860B1A8420AD0B84208D0404503
:1010900006D0484504D040F2B52113A001F045F92F
:1010A0003068E16820F4E0500843306020780007A1
:1010B00015D5206960B1A8420AD0B84208D0404591
:1010C00006D0484504D04FF42F7107A001F02DF948
:1010D0003068216920F4604040EAC100306000209F
:1010E000FFF750FE0020ABE72E2E2F447269766585
:1010F00072732F53544D3332463478785F48414CE5
:101100005F4472697665722F5372632F73746D3307
:1011100032663478785F68616C5F7263632E630057
:10112000003C02400838024010B500F043F808497E
:101130000968F02292FAA2F201F0F001B2FA82F20A
:10114000D140044A515CC8400349086010BD00000A
:10115000083802409C2300080400002010B5FFF767
:10116000E3FF074909684FF4E05292FAA2F201F452
:10117000E051B2FA82F2D140024A515CC84010BD3F
:10118000083802409C23000810B5FFF7CDFF07493F
:1011900009684FF4604292FAA2F201F46041B2FA97
:1011A00082F2D140024A515CC84010BD083802406A
:1011B0009C23000830B51948006810F00C0118484D
:1011C00012D0184C04290ED008290DD11349091F3B
:1011D0000A6802F03F030A68550247F6C07204D558
:1011E000B4FBF3F003E0204630BDB0FBF3F00B6836
:1011F0000968134092FAA2F2B2FA82F2D34058433D
:101200004FF4403292FAA2F201F44031B2FA82F283
:10121000D140491C4900B0FBF1F030BD0838024014
:101220000024F400C0C62D002DE9F84F04460068E4
:101230000F2803D9F621EDA001F077F8DFF8E48359
:101240002078A8F1040BC007ABF1040540D060681A
:1012500038B1012805D0052803D0FB21E3A001F017
:1012600064F8D8F800104046C1F38101012908D084
:101270000068C0F3810002280AD1DBF800004002B8
:1012800006D52868800323D56068002873D01FE046
:10129000E4492079891F0870606860B1FFF74AFD52
:1012A000064604E0FFF746FD801B64287ED82868C8
:1012B0008003F7D50CE0FFF73DFD064605E000BFD3
:1012C000FFF738FD801B6428F0D828688003F7D426
:1012D0002078D54E80074FF0010A4FF0000754D513
:1012E000E06830B1012804D040F22D11BFA001F018
:1012F0001CF820691F2804D94FF49771BBA001F096
:1013000014F8D8F80010404611F00C0F08D000680F
:10131000C0F3810002280AD1DBF80000400206D4A5
:101320002868800715D5E068012824D111E0E0681D
:10133000E0B1C6F800A0FFF7FDFC814606E000BF63
:10134000FFF7F8FCA0EB09000228AFD82868800757
:10135000F6D52868F82292FAA2F22169B2FA82F24E
:1013600020F0F8009140084328600EE03760FFF756
:10137000E1FC814606E017E1FFF7DCFCA0EB090089
:10138000022893D828688007F6D42078000732D541
:10139000DFF898926069E8B1012806D04FF4B77180
:1013A00092A000F0C2FF6069A0B100E013E1C9F8AB
:1013B00000A0FFF7BFFC814606E000BFFFF7BAFCC4
:1013C000A0EB09000228C0D896486C30006880075E
:1013D000F4D510E0C9F80070FFF7ACFC814605E0D9
:1013E000FFF7A8FCA0EB09000228AED88D486C30AE
:1013F00000688007F4D42078400753D5A06840B136
:10140000012806D0052804D04FF4CC7177A000F055
:101410008CFF84483830016841F0805101600068D9
:1014200000F0805000908248016841F480710160B2
:10143000FFF780FC814605E0FFF77CFCA0EB09008C
:1014400002289ED87A480068C005F5D5DFF8D49107
:10145000207A09F1680989F80000A06888B1FFF7CF
:1014600069FC009008E000BFFFF764FC0099411A96
:1014700041F28830814284D8D9F800008007F3D542
:1014800010E0FFF757FC009008E000BFFFF752FCA8
:101490000099411A41F28830814294D8D9F800006D
:1014A0008007F3D4A06900287DD0012809D0022844
:1014B00007D040F2CD114DA000F037FFA069002801
:1014C000F2D0D8F80000C0F3810002286CD0A069E7
:1014D000022804D03766FFF72DFC04467EE0E06961
:1014E00038B1B0F5800F04D04FF4EB713FA000F09D
:1014F0001CFF206A3F2804D940F2D7113BA000F01E
:1015000014FF606AC038F02804D94FF4EC7137A09A
:1015100000F00BFFA06A02280AD0042808D0062891
:1015200006D0082804D040F2D91130A000F0FDFE0A
:10153000E06A001F0B2804D94FF4ED712BA000F0D6
:10154000F4FE3766FFF7F6FB074604E0FFF7F2FB11
:10155000C01B02283FD828688001F7D4D4E90701CE
:10156000084347F6C07292FAA2F2616AB2FA82F2B6
:101570009140A26A4FF0FF3303EB52024FF4403325
:1015800093FAA3F3B3FA83F39A40114308434FF05D
:10159000706292FAA2F2E16AB2FA82F291400843D2
:1015A000CBF8000001E01CE01DE0C6F860A0FFF7EA
:1015B000C1FB044605E000BFFFF7BCFB001B02288F
:1015C00009D828688001F7D50BE000BFFFF7B2FB10
:1015D000001B022802D90320BDE8F88F286880018B
:1015E000F4D40020F8E70120F6E700002E2E2F4467
:1015F0007269766572732F53544D3332463478785E
:101600005F48414C5F4472697665722F5372632F55
:1016100073746D3332663478785F68616C5F7263BF
:10162000632E63000838024000004742800E4742A4
:101630000070004010B54FF0E024042809D020B11C
:1016400040F2B31105A000F070FE206920F0040004
:1016500002E0206940F00400206110BD2E2E2F44CE
:101660007269766572732F53544D333246347878ED
:101670005F48414C5F4472697665722F5372632FE5
:1016800073746D3332663478785F68616C5F636F52
:10169000727465782E630000704710B5401EB0F17B
:1016A000807F01D3012010BD4FF0E02460610F2145
:1016B000601700F0F1F90020A061072020610020F0
:1016C00010BD10B5FFF7E8FF10BD000070B50400B5
:1016D0001ED03549A0698D150028344A344B206846
:1016E00018D0884209D0904207D0984205D0FB21FB
:1016F00030A000F01AFEA069B0B1A069A84213D0D2
:10170000B0F5007F10D0B0F5407F0DD0FC2108E08F
:10171000012070BD884207D0904205D0984203D086
:10172000294624A000F001FEA06838B1B0F5805F22
:1017300004D04FF481711FA000F0F7FDE06938B1CB
:10174000B0F5004F04D040F203111AA000F0EDFDF7
:1017500094F83900002520B984F83850204600F06C
:1017600047F8242084F839002068C16821F400512A
:10177000C160204600F0FCFA2068016921F4904124
:1017800001612068416921F02A0141612068C16836
:1017900041F40051C160E563202084F8390084F8E9
:1017A0003A00002070BD00000010014000440040DD
:1017B000001401402E2E2F447269766572732F53E8
:1017C000544D3332463478785F48414C5F447269F7
:1017D0007665722F5372632F73746D33326634786B
:1017E000785F68616C5F756172742E630000000041
:1017F00000B500680E4987B0884217D10D480168CE
:1018000041F0100101600068694600F01000059089
:101810004FF4C0600090022001900120029003204C
:101820000390072004900448FFF7C2F807B000BDFA
:101830000010014044380240000002402DE9F04110
:10184000044690F83A0098460D4620284AD105B340
:10185000FAB194F83800012844D0012084F8380007
:101860000026E663222084F83A00A285E2854FF440
:101870008057E08D4346401EE085A0684FF000028F
:10188000B8424FF02001204614D100F013FCA0B95B
:1018900002E00120BDE8F08120690028206840684E
:1018A00003D0C1B225F8011B12E0C0F3080125F8EE
:1018B000021B0DE000F0FEFB08B10320EAE72069FF
:1018C00000282068406801D000F07F0005F8010B77
:1018D000E08D0028CDD1202084F83A0084F83860CB
:1018E0000020D7E70220D5E72DE9F041044690F823
:1018F000390098460D46202849D105B3FAB194F82D
:101900003800012843D0012084F838000026E6631F
:10191000212084F83900A284E2844FF48057E08CBF
:101920004346401EE084A0684FF00002B8424FF0EA
:101930008001204611D100F0BDFBF8B902E0012082
:10194000BDE8F08128882168C0F30800486020695C
:1019500008B16D1C08E0AD1C06E000F0ABFB68B9F7
:10196000216815F8010B4860E08C0028D7D1434668
:1019700000224021204600F09DFB08B10320DFE754
:10198000202084F8390084F838600020D8E702204D
:10199000D6E7000070B5264886B00025016841F002
:1019A00004010160016801F004010591016841F042
:1019B00080010160016801F080010591016841F03A
:1019C00001010160016801F001010591016841F028
:1019D000020101600068032400F0020005904FF44A
:1019E00060408DE8310069461248FEF7E1FF0120B2
:1019F000CDE90040104ECDE9025469463046FEF76D
:101A0000D7FF49F6FC108DE8310069463046FEF7F5
:101A1000CFFF4FF2FF708DE8310069460748FEF7AF
:101A2000C7FF012203213046FFF74EF906B070BD13
:101A3000303802400008024000000240000402402A
:101A4000114808B50F4901604FF4E13141600021B0
:101A500081600C22C160C0E904128161C161FFF79D
:101A600035FE0A48016841F4805101600068094967
:101A700000F48050009006480860BDE80840084621
:101A8000FEF750BE001001403C00002030380240FC
:101A900000300240140000200907090E002806DA71
:101AA00000F00F0000F1E02080F8141D704700F1F5
:101AB000E02080F8001470472DE9F84300240F4619
:101AC0000646904613460C60012269462848FFF7F7
:101AD000B5FE050020D19DF80000182820D006DCB6
:101AE00001280BD002280BD0042804D104E041289F
:101AF00027D0612825D0012530700DE0802401E039
:101B00004FF480643070221D4346B11C1848FFF723
:101B100095FE050017D0002428463C60BDE8F883F8
:101B20004346012269461248FFF788FE18B99DF81E
:101B30000000182803D001259DF80000DCE70224EE
:101B4000DAE70225D8E7F178B07881F0FF01884222
:101B50000AD130190179407900EB01282146301D66
:101B6000FEF748FB4045D7D000240125D4E700000C
:101B70003C00002001B5074890F83910A02902D197
:101B8000202180F839106423012269460148FFF7BB
:101B9000ABFE08BD3C00002007480168074A114021
:101BA000B1F1005F07D14168054A5160916000685A
:101BB00080F308880847704700C000080000FE2F27
:101BC00008000020F0B5054600242A782046234668
:101BD000302A2ED16A78782A01D0582A29D10224B5
:101BE0001CE000BFA2F14106052E07D9A2F1610752
:101BF000052F03D91136092E04D913E0A2F13007BD
:101C0000092F01D8303A04E0052E01D8373A00E018
:101C1000573A641C02EB03130B2C04D22A5D002AF2
:101C2000E0D103E000202A5D002A01D101200B60F1
:101C3000F0BD2A5D62B16B2A01D04B2A02D10CB1F2
:101C40009B0205E06D2A01D04D2A04D11CB11B0571
:101C500001200B600AE0A2F13006092E0CD803EB3C
:101C600083036FF02F0606EB43031344641C0B2C15
:101C7000DED20128DDD1F0BD0020F0BD10B5FFF7A8
:101C80005FF8BDE81040FFF71CBD000030B52148EB
:101C900093B00025016841F080510160006800F0B8
:101CA000805011901C48016841F440410160006877
:101CB000022400F440401190012000900520019082
:101CC0006005CDE9064003200890C820CDE909044D
:101CD00004200B906846FFF7A7FA0CA90F2081E8B3
:101CE0003100E002CDE90F0503210CA8FFF7F6F85B
:101CF000FFF71AFA4FF47A71B0FBF1F0FFF7CDFC61
:101D00000420FFF797FC00221146501EFFF756F8FB
:101D100013B030BD403802400070004010480168E8
:101D200041F4700101600F48016841F00101016058
:101D30000C4A00210832116002680B4B1A40026005
:101D4000031D0A4A1A60026822F4802202600548D4
:101D50000C30016002495806803908607047000065
:101D600088ED00E000380240FFFFF6FE103000244E
:101D70002DE9F04104464068BC49884204D340F252
:101D8000DD61BBA000F0D1FAE06838B1B0F5005FCA
:101D900004D040F2DE61B6A000F0C7FA206950B16D
:101DA000B0F5806F07D0B0F5C06F04D040F2DF61AE
:101DB000AFA000F0BAFA60694FF6F371084200D1A3
:101DC00020B94FF4DC61AAA000F0AFFA22681069D4
:101DD00020F44051E068084310612268D06849F25D
:101DE0000C6188432369A168E569194363692B4342
:101DF00019430143D1602268506920F44071A06901
:101E000008435061E2696425B2F5004FA748A8492C
:101E100022684FF032083FD08A4201D082427CD102
:101E2000FFF7B2F900EBC00101EB00106168890017
:101E3000B0FBF1F6FFF7A8F900EBC00101EB0010D1
:101E400061688900B0FBF1F0B0FBF5F06FF01801AC
:101E5000484306EB800108EB0110B0FBF5F000F001
:101E6000F006FFF791F900EBC00101EB001061688B
:101E70008900B0FBF1F0B0FBF5F006EB0016FFF7C0
:101E800083F900EBC00101EB001061688900B0FB31
:101E9000F1F7FFF779F9D2E08A4201D082423DD1D1
:101EA000FFF772F900EBC00101EB00106168490017
:101EB000B0FBF1F0B0FBF5F00601FFF765F900EBC0
:101EC000C00101EB001061684900B0FBF1F7FFF7BA
:101ED0005BF900EBC00101EB001061684900B0FB49
:101EE000F1F0B0FBF5F06FF01801484307EB80010B
:101EF00008EBC100B0FBF5F000F0F80006EB40067F
:101F0000FFF742F900EBC00101EB001061684900E6
:101F1000B0FBF1F7FFF738F93CE055E0FFF71EF9A9
:101F200000EBC00101EB001061684900B0FBF1F06B
:101F3000B0FBF5F00601FFF711F900EBC00101EB72
:101F4000001061684900B0FBF1F7FFF707F900EBFB
:101F5000C00101EB001061684900B0FBF1F0B0FB7B
:101F6000F5F06FF01801484307EB800108EBC10062
:101F7000B0FBF5F000F0F80006EB4006FFF7EEF8D6
:101F800000EBC00101EB001061684900B0FBF1F704
:101F9000FFF7E4F800EBC00101EB001061684900B5
:101FA000B0FBF1F0B0FBF5F06FF01801484307EB20
:101FB000800108EBC100B0FBF5F000F007002168DC
:101FC00030448860BDE8F081FFF7C8F800EBC0013D
:101FD00001EB001061688900B0FBF1F6FFF7BEF875
:101FE00000EBC00101EB001061688900B0FBF1F06B
:101FF000B0FBF5F06FF01801484306EB800108EBE9
:102000000110B0FBF5F000F0F006FFF7A7F800EBC9
:10201000C00101EB001061688900B0FBF1F0B0FB7A
:10202000F5F006EB0016FFF799F800EBC00101EBA5
:10203000001061688900B0FBF1F7FFF78FF800EB43
:10204000C00101EB001061688900B0FBF1F0B0FB4A
:10205000F5F06FF01801484307EB800108EB011021
:10206000B0FBF5F000F00F00A9E70000A137A000D9
:102070002E2E2F447269766572732F53544D33326E
:10208000463478785F48414C5F4472697665722FB8
:102090005372632F73746D3332663478785F68617E
:1020A0006C5F756172742E630000000000140140C3
:1020B000001001402DE9F0471D4690460E460446AB
:1020C000FEF738FE07465FEA08004FF000094FF0C0
:1020D000200808D032E0681C05D095B1FEF72AFE32
:1020E000C01BA8420DD82068006836EA0000F2D173
:1020F00029E0681C22D025B1FEF71CFEC01BA842B7
:102100001CD92068C16821F08001C1602068C168C5
:1021100021F02001C1602068C16821F48071C16094
:102120002068416921F00101416184F8398084F817
:102130003A8084F838900320BDE8F0872068006872
:1021400036EA0000D5D00020F6E741F4807141F274
:10215000210240004900CB0500D5401CC30300D537
:102160005040CB03F5D580B2704700002DE9F14F08
:102170000027DFF884A190B03E46B9463C46D346DE
:10218000B1E000BF4FF000084546A8E04FF47A7276
:1021900003A95A48FFF790FC60B102286AD0B9F150
:1021A000000F00D0761C052E7CD91820FFF7E2FC2A
:1021B000182092E00398002670B1022807D04F49FA
:1021C00008F0FF028B7893420BD0152085E00620A3
:1021D000FFF7D0FC022482E00620FFF7CBFC0125AC
:1021E0007DE0B8F1000F12D082085846091DFEF7B5
:1021F000C7F8E8B31820FFF7BDFC1820FFF7BAFCBA
:102200005FF0040408F101084FF0010967E0087964
:1022100078B300203A4B091D02E01A54401C491CB7
:102220000A780AB14028F8D34FF0000C03F800C038
:10223000604607AB01E01A54401C11F8012F202A18
:1022400001D01028F7D303F800C00EA91846FFF7F5
:10225000B9FC10986FF4E8210068C84215D918201D
:102260004FF480148DF83400234601220DA902E0BA
:102270001FE018E027E02348FFF736FB2346012242
:102280000DA92048FFF730FB05245046FEF75CF807
:1022900010980E9901600620FFF76CFC4320FFF7B1
:1022A00069FCAFE714E00620FFF764FC01252F4628
:1022B00015E0039906208B44FFF75CFC03211248CC
:1022C000FEF7D6FC9EE71820FFF754FC18207FE7A6
:1022D00003210D48FEF7CCFC4320FFF74BFC55EAE9
:1022E00004003FF453AF57EA04003FF44BAF11B082
:1022F0002046BDE8F08F000000C000087C000020F0
:10230000820400203C0000200000024002E008C8D7
:10231000121F08C1002AFAD170477047002001E05F
:1023200001C1121F002AFBD17047704708B5002079
:102330000090FEF70DFDFFF7A9FCFFF72BFBFFF761
:102340007FFB134D002203212846FEF7BDFC4FF40E
:102350007A7301220F491048FFF770FA0D4C641E82
:1023600020B96078552801D1012020700122032175
:102370002846FEF7A9FC2078012806D16846FFF719
:10238000F5FEA07008B1022801D1FFF705FCFEE7B9
:1023900000000240090000203C0000200000000076
:1023A000010203040102030406070809CC23000804
:1023B000000000201C0000000C230008E823000897
:1023C0001C000020AC0600001C23000800000000D8
:1023D0000024F400000000000000000000000000E5
:0823E0000000000000000000F5
:040000050800019955
:00000001FF
