:020000040800F2
:10C0000078060020ADC10008B5C10008B7C100081E
:10C01000B9C10008BBC10008BDC100080000000094
:10C02000000000000000000000000000BFC1000888
:10C03000C1C1000800000000C3C1000895EA000863
:10C04000C7C10008C7C10008C7C10008C7C10008B0
:10C05000C7C10008C7C10008C7C10008C7C10008A0
:10C06000C7C10008C7C10008C7C10008C7C1000890
:10C07000C7C10008C7C10008C7C10008C7C1000880
:10C08000C7C10008C7C10008C7C100080000000000
:10C09000000000000000000000000000C7C1000810
:10C0A000C7C10008C7C10008C7C10008C7C1000850
:10C0B0008DEB0008C7C10008C7C10008C7C1000850
:10C0C000C7C10008C7C10008C7C10008C7C1000830
:10C0D000C7C1000899F10008C7C1000800000000AE
:10C0E000C7C10008C7C10008C7C1000800000000A0
:10C0F000000000000000000000000000C7C10008B0
:10C1000000000000C7C10008C7C10008C7C100087F
:10C11000000000000000000000000000000000001F
:10C12000C7C10008C7C10008C7C10008C7C10008CF
:10C13000C7C100080000000000000000000000006F
:10C14000000000000000000000000000C7C100085F
:10C15000C7C10008C7C10008C7C10008C7C100089F
:10C16000C7C10008C7C100080000000000000000AF
:10C1700000000000000000000000000000000000BF
:10C1800000000000C7C1000800000000000000001F
:10C19000C7C10008C7C10008DFF80CD000F04AF89A
:10C1A000004800476D0101087806002006488047D6
:10C1B00006480047FEE7FEE7FEE7FEE7FEE7FEE78C
:10C1C000FEE7FEE7FEE7FEE735EB000899C1000851
:10C1D0002DE9F05F0546002092469B4688460646BC
:10C1E000814640241BE0284641464746224600F04F
:10C1F00042F853465A46C01A914110D31146184688
:10C20000224600F029F82D1A67EB01084F46224616
:10C210000120002100F020F817EB00094E41201EFC
:10C22000A4F10104DFDC484631462A464346BDE816
:10C23000F09F0000064C074D06E0E06840F0010367
:10C2400094E8070098471034AC42F6D3FFF7A8FFF4
:10C250003810010858100108202A04DB203A00FA9F
:10C2600002F1002070479140C2F1200320FA03F34D
:10C27000194390407047202A04DB203A21FA02F04B
:10C280000021704721FA02F3D040C2F12002914010
:10C2900008431946704700002DE9F84F04469048BE
:10C2A0000D46844212D08F4884420FD08E4884427B
:10C2B0000CD08E48844209D08D48844206D08D48E7
:10C2C000844203D0C5218CA003F0BDF92888000466
:10C2D000000C03D1C62188A003F0B5F96868F8B155
:10C2E00001281DD011281BD0022819D0122817D0E0
:10C2F0009049884214D09049884211D08F49884291
:10C300000ED08F4988420BD08E49884208D08E4982
:10C31000884205D0032803D0C72177A003F093F902
:10C32000A86838B1012805D0022803D0C82172A01E
:10C3300003F089F900264FF0010B00BF0BFA06F05D
:10C340002F688246074057457ED16868022801D091
:10C35000122828D12869C8B1092817D0012815D07A
:10C36000022813D0042811D005280FD006280DD09C
:10C3700007280BD0082809D00A2807D00C2805D098
:10C380000F2803D0D9215CA003F05DF9F00804EB7D
:10C390008002106A7107CB0E0F21994088432969EA
:10C3A00099400143116220687100032202FA01F8EA
:10C3B0002A79894602F0030220EA080002FA09F20B
:10C3C000024322606868012805D0022803D01128A2
:10C3D00001D012281CD1E86848B1012807D00228F2
:10C3E00005D0032803D0EC2143A003F02CF9A0686A
:10C3F000E96820EA080001FA09F10143A1606168D7
:10C40000287921EA0A01C0F30010B04008436060B7
:10C41000E068A96820EA080001FA09F10143E16037
:10C420006868C00056D54948016841F48041016000
:10C43000006826F0030100F4804000904448014465
:10C44000D1F80838B00700E044E0020F0F20904018
:10C4500083432348844201D1002014E021488442D0
:10C4600001D101200FE02048844201D102200AE0DE
:10C470001E48844201D1032005E01D48844201D1B9
:10C48000042000E0052090401843C1F80808314915
:10C4900008686A68B843D20300D5384308602D495C
:10C4A000091D08686A68B843920300D538430860DC
:10C4B0002849083108686A68B843D20200D5384371
:10C4C000086024490C3108686A68B843920200D5B4
:10C4D00038430860761C102EFFF430AFBDE8F88FAB
:10C4E000000002400004024000080240000C02402C
:10C4F00000100240001C02402E2E2F447269766507
:10C5000072732F53544D3332463478785F48414C20
:10C510005F4472697665722F5372632F73746D3343
:10C5200032663478785F68616C5F6770696F2E631C
:10C530000000000000001110000021100000311068
:10C540000000121000002210000032104438024097
:10C5500000300140003C014070B50C00054604D19C
:10C560004FF4C87103A003F06EF82869204000D092
:10C57000012070BD2E2E2F447269766572732F5381
:10C58000544D3332463478785F48414C5F44726989
:10C590007665722F5372632F73746D3332663478FD
:10C5A000785F68616C5F6770696F2E6300000000E0
:10C5B00070B515460C00064604D140F2B11108A032
:10C5C00003F041F845B1012D04D04FF4D97104A016
:10C5D00003F039F8B46170BD2004B06170BD000093
:10C5E0002E2E2F447269766572732F53544D333259
:10C5F000463478785F48414C5F4472697665722FA3
:10C600005372632F73746D3332663478785F686168
:10C610006C5F6770696F2E6300000000014800685E
:10C62000704700006000002002480168491C01605A
:10C6300070470000600000200B4810B5016841F40D
:10C6400000710160016841F480610160016841F49A
:10C6500080710160032000F0A5F8002000F006F8CA
:10C6600000F015F8002010BD003C024010B5044653
:10C6700000F010FA4FF47A71B0FBF1F000F00FFF08
:10C6800000222146501E00F03DF8002010BD10B5DC
:10C69000052000F087F80022BDE810401146501E2A
:10C6A00000F030B810B5040003D5D02106A002F088
:10C6B000CAFF04F01F01012088406109890001F1CF
:10C6C000E021C1F8000110BD2E2E2F44726976655D
:10C6D00072732F53544D3332463478785F48414C4F
:10C6E0005F4472697665722F5372632F73746D3372
:10C6F00032663478785F68616C5F636F72746578F6
:10C700002E63000070B515460C460646102A03D36A
:10C71000BC2114A002F097FF102C03D3BD2111A05F
:10C7200002F091FF1E480068C0F30223C3F1070224
:10C730002046042A00D90422191D072901D200230A
:10C7400000E0DB1E012404FA02F1491E0140994079
:10C750009C40641E2C4021433046BDE8704002F0EE
:10C76000D7B800002E2E2F447269766572732F534E
:10C77000544D3332463478785F48414C5F44726997
:10C780007665722F5372632F73746D33326634780B
:10C79000785F68616C5F636F727465782E63000008
:10C7A0000CED00E010B5044607280BD0062C09D08C
:10C7B000052C07D0042C05D0032C03D0A42108A0FD
:10C7C00002F041FF154904F0070208684FF6FF0325
:10C7D000184040EA0220124A1043086010BD0000D1
:10C7E0002E2E2F447269766572732F53544D333257
:10C7F000463478785F48414C5F4472697665722FA1
:10C800005372632F73746D3332663478785F686166
:10C810006C5F636F727465782E6300000CED00E04E
:10C820000000FA05BFF34F8F05480168054A01F47F
:10C83000E06111430160BFF34F8F00BFFDE70000CF
:10C840000CED00E00400FA052DE9F047044600680D
:10C850000D46401E0E2804D94FF40E717DA002F043
:10C86000F2FE95B1012D10D0022D0ED0032D0CD06B
:10C87000042D0AD0052D08D0062D06D0072D04D092
:10C8800040F2392173A002F0DEFEDFF800A2DAF8F0
:10C89000000000F00F01E8B28146A94208D201462B
:10C8A0008AF80010DAF8000000F00F00A8426ED1FC
:10C8B0002078774E80071CD5A068A0B1802812D0C0
:10C8C000902810D0A0280ED0B0280CD0C0280AD0B4
:10C8D000D02808D0E02806D0F02804D04FF41471F6
:10C8E0005CA002F0B0FE3068A16820F0F0000843C0
:10C8F00030602078C0075FD0654F6068083F88B11E
:10C90000012826D0022827D0032825D040F257211D
:10C9100050A002F098FE606801281AD002281BD0AF
:10C92000032819D038688007002853DA3068616816
:10C9300020F0030008433060FFF770FE0746606890
:10C9400041F28838012810D002281AD003281FD0BD
:10C950002EE038688003E7E738688001E4E700BF2D
:10C96000FFF75CFEC11B41451FD83068C0F3810052
:10C970000128F5D120E000BFFFF750FEC11B414563
:10C9800013D83068C0F381000228F5D114E021E00B
:10C990003068FFF743FEC01B4045F9D905E000BFF2
:10C9A000FFF73CFEC11B414502D90320BDE8F087DB
:10C9B000306810F00C0FF3D1DAF80010504601F097
:10C9C0000F01A94208D980F80090006800F00F001C
:10C9D000A84201D00120E9E720784FF480554007B4
:10C9E0004FF4A0574FF4C0584FF4E05914D5E06805
:10C9F00060B1A8420AD0B84208D0404506D04845A8
:10CA000004D040F2B52113A002F01DFE3068E168A9
:10CA100020F4E050084330602078000715D52069E5
:10CA200060B1A8420AD0B84208D0404506D0484577
:10CA300004D04FF42F7107A002F005FE3068216981
:10CA400020F4604040EAC10030600020FFF70EFE95
:10CA50000020ABE72E2E2F447269766572732F5338
:10CA6000544D3332463478785F48414C5F447269A4
:10CA70007665722F5372632F73746D333266347818
:10CA8000785F68616C5F7263632E6300003C0240F4
:10CA90000838024010B500F043F808490968F02250
:10CAA00092FAA2F201F0F001B2FA82F2D140044A05
:10CAB000515CC8400349086010BD000008380240BE
:10CAC000281001086400002010B5FFF7E3FF0749B4
:10CAD00009684FF4E05292FAA2F201F4E051B2FA7E
:10CAE00082F2D140024A515CC84010BD0838024071
:10CAF0002810010810B5FFF7CDFF074909684FF46A
:10CB0000604292FAA2F201F46041B2FA82F2D1409C
:10CB1000024A515CC84010BD083802402810010884
:10CB200030B51948006810F00C01184812D0184CA4
:10CB300004290ED008290DD11349091F0A6802F0F3
:10CB40003F030A68550247F6C07204D5B4FBF3F000
:10CB500003E0204630BDB0FBF3F00B6809681340DA
:10CB600092FAA2F2B2FA82F2D34058434FF4403222
:10CB700092FAA2F201F44031B2FA82F2D140491C99
:10CB80004900B0FBF1F030BD083802400024F40049
:10CB9000C0C62D002DE9F84F044600680F2803D9C0
:10CBA000F621EDA002F04FFDDFF8E4832078A8F134
:10CBB000040BC007ABF1040540D0606838B1012810
:10CBC00005D0052803D0FB21E3A002F03CFDD8F8F6
:10CBD00000104046C1F38101012908D00068C0F36C
:10CBE000810002280AD1DBF80000400206D528683F
:10CBF000800323D56068002873D01FE0E4492079C2
:10CC0000891F0870606860B1FFF708FD064604E000
:10CC1000FFF704FD801B64287ED828688003F7D5C1
:10CC20000CE0FFF7FBFC064605E000BFFFF7F6FC53
:10CC3000801B6428F0D828688003F7D42078D54E6C
:10CC400080074FF0010A4FF0000754D5E06830B17B
:10CC5000012804D040F22D11BFA002F0F4FC20699D
:10CC60001F2804D94FF49771BBA002F0ECFCD8F850
:10CC70000010404611F00C0F08D00068C0F381008E
:10CC800002280AD1DBF80000400206D42868800799
:10CC900015D5E068012824D111E0E068E0B1C6F8BC
:10CCA00000A0FFF7BBFC814606E000BFFFF7B6FC23
:10CCB000A0EB09000228AFD828688007F6D52868BD
:10CCC000F82292FAA2F22169B2FA82F220F0F80078
:10CCD0009140084328600EE03760FFF79FFC8146D3
:10CCE00006E017E1FFF79AFCA0EB0900022893D8B1
:10CCF00028688007F6D42078000732D5DFF89892AC
:10CD00006069E8B1012806D04FF4B77192A002F033
:10CD10009AFC6069A0B100E013E1C9F800A0FFF738
:10CD20007DFC814606E000BFFFF778FCA0EB090020
:10CD30000228C0D896486C3000688007F4D510E00F
:10CD4000C9F80070FFF76AFC814605E0FFF766FC52
:10CD5000A0EB09000228AED88D486C30006880072F
:10CD6000F4D42078400753D5A06840B1012806D0FC
:10CD7000052804D04FF4CC7177A002F064FC8448FD
:10CD80003830016841F080510160006800F0805047
:10CD900000908248016841F480710160FFF73EFC19
:10CDA000814605E0FFF73AFCA0EB090002289ED877
:10CDB0007A480068C005F5D5DFF8D491207A09F1EA
:10CDC000680989F80000A06888B1FFF727FC009087
:10CDD00008E000BFFFF722FC0099411A41F28830B9
:10CDE000814284D8D9F800008007F3D510E0FFF71E
:10CDF00015FC009008E000BFFFF710FC0099411AF5
:10CE000041F28830814294D8D9F800008007F3D4E9
:10CE1000A06900287DD0012809D0022807D040F25F
:10CE2000CD114DA002F00FFCA0690028F2D0D8F877
:10CE30000000C0F3810002286CD0A069022804D051
:10CE40003766FFF7EBFB04467EE0E06938B1B0F5EA
:10CE5000800F04D04FF4EB713FA002F0F4FB206A86
:10CE60003F2804D940F2D7113BA002F0ECFB606AE6
:10CE7000C038F02804D94FF4EC7137A002F0E3FB7E
:10CE8000A06A02280AD0042808D0062806D008285C
:10CE900004D040F2D91130A002F0D5FBE06A001FA7
:10CEA0000B2804D94FF4ED712BA002F0CCFB3766B0
:10CEB000FFF7B4FB074604E0FFF7B0FBC01B0228F6
:10CEC0003FD828688001F7D4D4E90701084347F622
:10CED000C07292FAA2F2616AB2FA82F29140A26A38
:10CEE0004FF0FF3303EB52024FF4403393FAA3F3B6
:10CEF000B3FA83F39A40114308434FF0706292FAF9
:10CF0000A2F2E16AB2FA82F291400843CBF8000043
:10CF100001E01CE01DE0C6F860A0FFF77FFB0446BF
:10CF200005E000BFFFF77AFB001B022809D828683C
:10CF30008001F7D50BE000BFFFF770FB001B022854
:10CF400002D90320BDE8F88F28688001F4D40020BE
:10CF5000F8E70120F6E700002E2E2F44726976656F
:10CF600072732F53544D3332463478785F48414CB6
:10CF70005F4472697665722F5372632F73746D33D9
:10CF800032663478785F68616C5F7263632E630029
:10CF90000838024000004742800E474200700040BF
:10CFA00070B504006CD06C492068884210D06B4981
:10CFB00088420DD06A4988420AD06A49884207D01F
:10CFC0006949884204D04FF4867168A002F03BFBA7
:10CFD000606838B1B0F5827F04D040F20D1163A0D3
:10CFE00002F031FBA06850B1B0F5806F07D0B0F50A
:10CFF000004F04D04FF487715CA002F024FBE0687E
:10D00000B0F5006F05D020B140F20F1157A002F02B
:10D010001AFBA069B0F5007F08D038B1B0F5802FB9
:10D0200004D04FF4887151A002F00DFBE06990B17B
:10D03000082810D010280ED018280CD020280AD08C
:10D04000282808D0302806D0382804D040F2111102
:10D0500046A002F0F8FA206A30B1802804D04FF4DC
:10D06000897142A002F0EFFA606A58B110281BD013
:10D0700040F213113DA002F0E6FA606A10B113E02D
:10D08000012070BD206930B1022804D04FF48B71AB
:10D0900036A002F0D8FA606930B1012804D040F21D
:10D0A000171132A002F0CFFAA06A4FF40056A0B1D7
:10D0B000B04207D04FF48D712CA002F0C4FAA06AE0
:10D0C000B0420AD1E06A4FF6FE71401E884204D990
:10D0D00040F21D1125A002F0B6FA94F85100002587
:10D0E00020B984F85050204600F05CF8022084F803
:10D0F00051002068016821F040010160D4E901017C
:10D100000843D4E903121143084361690843218BA2
:10D1100001F400710843E1690843216A0843A16AE8
:10D12000084321680860A069042101EA1040616A8F
:10D13000084321684860A06AB04202D12168E06AD1
:10D1400008612068C16921F40061C1616565012041
:10D1500084F85100002070BD0030014000380040CC
:10D16000003C004000340140005001402E2E2F446E
:10D170007269766572732F53544D33324634787822
:10D180005F48414C5F4472697665722F5372632F1A
:10D1900073746D3332663478785F68616C5F737076
:10D1A000692E630000B500680E4987B0884216D129
:10D1B0000D480021026842F480520260006800F4C9
:10D1C00080500590E02000900220CDE9010103206D
:10D1D00003900520049069460448FFF75DF807B006
:10D1E00000BD000000300140443802400000024011
:10D1F0002DE9F84F4FF0000B0A9E984691468A465B
:10D200000446ADF800B080685D4620B14FF44A7125
:10D210007BA002F018FA94F8500001280ED00120EB
:10D2200084F85000FFF7FAF9074694F851000128F6
:10D230000FD06068B0F5827F09D102E00220BDE81E
:10D24000F88FA06818B994F85100042801D002257D
:10D25000CFE0BAF1000F0AD0B9F1000F07D0B8F152
:10D26000000F04D094F85100012802D004E00125F9
:10D27000BFE0052084F85100C4F854B0C4F83890D9
:10D28000A4F83E80A4F83C80C4F830A0A4F836800E
:10D29000A4F83480C4F840B0C4F844B0A06A4FF495
:10D2A000005840450AD1206801684DF6FF721140D0
:10D2B00001602068016841F4005101602068016844
:10D2C000490603D4016841F040010160E068B0F50F
:10D2D000006F29D05AE0A0B120688168890710D575
:10D2E0003AF8021BC160E08E401E0004000CE0868C
:10D2F00007D1A06A404504D12068016841F48051FB
:10D300000160E08F48B120688168C90705D0C06816
:10D3100029F8020BE08F401EE087701C04D0FFF755
:10D320007DF9C01BB0422FD2E08E0028D3D1E18F0F
:10D330000029D0D130E0A0B120688168890710D5DC
:10D340001AF8011B0173E08E401E0004000CE086F9
:10D3500007D1A06A404504D12068016841F480519A
:10D360000160E08F48B120688168C90705D0C068B6
:10D3700009F8010BE08F401EE087701C06D0FFF714
:10D380004DF9C01BB04201D3032532E0E08E0028E6
:10D39000D1D1E18F0029CED1A06A404512D101221E
:10D3A000334611462046009701F02EFB20B1606DF8
:10D3B00040F002006065E7E72068C068ADF8000053
:10D3C000BDF8000020688168C90607D5616D41F08D
:10D3D000020161654FF6EF71816001253A463146E1
:10D3E000204601F001FB20B1606D40F02000606537
:10D3F0003DE7012084F8510084F850B028461EE72C
:10D400002E2E2F447269766572732F53544D33322A
:10D41000463478785F48414C5F4472697665722F74
:10D420005372632F73746D3332663478785F68613A
:10D430006C5F7370692E630010B54FF0E024042810
:10D4400009D020B140F2B31105A002F0FCF8206928
:10D4500020F0040002E0206940F00400206110BDCB
:10D460002E2E2F447269766572732F53544D3332CA
:10D47000463478785F48414C5F4472697665722F14
:10D480005372632F73746D3332663478785F6861DA
:10D490006C5F636F727465782E630000704710B51F
:10D4A000401EB0F1807F01D3012010BD4FF0E02479
:10D4B00060610F21601701F02BFA0020A0610720A6
:10D4C0002061002010BD10B5FFF7E8FF10BD7047C8
:10D4D0007047000070B50D46044600682D4988422B
:10D4E00013D0B0F1804F10D02B4988420DD02B497A
:10D4F00088420AD02A49884207D02A49884204D063
:10D500004FF4CB6128A002F09EF8286890B1102853
:10D5100010D020280ED030280CD040280AD0502817
:10D5200008D0602806D0702804D040F259611EA0AF
:10D5300002F089F86868802805D020B140F25A616D
:10D5400019A002F080F894F8380001281FD00120BB
:10D5500084F83800022184F8391021684A6822F0E2
:10D5600070024A6021684A682B681A434A60216841
:10D570008A6822F080028A6021688A686B681A4390
:10D580008A6084F83900002084F8380070BD0220D9
:10D5900070BD000000000140000400400008004091
:10D5A000000C0040004001402E2E2F447269766529
:10D5B00072732F53544D3332463478785F48414C60
:10D5C0005F4472697665722F5372632F73746D3383
:10D5D00032663478785F68616C5F74696D5F657816
:10D5E0002E63000010B504003AD027492068884215
:10D5F00018D0B0F1804F15D02449884212D0244968
:10D6000088420FD0234988420CD02349884209D050
:10D610002249884206D02249884203D0D92121A03C
:10D6200002F011F8A06858B1102809D0202807D0BE
:10D63000402805D0602803D0DA211AA002F003F8B0
:10D64000206948B1B0F5807F06D0B0F5007F03D0E7
:10D65000DB2114A001F0F7FF94F8390010B107E0C6
:10D66000012010BD002084F83800204600F036F874
:10D67000022084F83900211D206801F08DFA012074
:10D6800084F83900002010BD000001400004004073
:10D6900000080040000C00400040014000440140F0
:10D6A000004801402E2E2F447269766572732F5305
:10D6B000544D3332463478785F48414C5F44726948
:10D6C0007665722F5372632F73746D3332663478BC
:10D6D000785F68616C5F74696D2E630008B50168DE
:10D6E0001648B1F1804F0AD0154A914219D101680C
:10D6F00041F002010160006800F002001BE00168D7
:10D7000041F0010101600068002200F0010000907A
:10D7100011461C20FEF7F6FFBDE808401C20FEF76E
:10D72000C1BF084A914207D1016841F00801016078
:10D73000006800F00800009008BD0000403802407A
:10D7400000040040000C004010B504460168154874
:10D75000814219D0B1F1804F16D01348814213D0C5
:10D760001248814210D0124881420DD011488142A6
:10D770000AD01148814207D01048814204D04FF4AA
:10D780009A710FA001F05FFF022084F83900206831
:10D79000016841F001010160012084F83900002096
:10D7A00010BD0000000001400004004000080040DF
:10D7B000000C00400040014000440140004801408E
:10D7C0002E2E2F447269766572732F53544D333267
:10D7D000463478785F48414C5F4472697665722FB1
:10D7E0005372632F73746D3332663478785F686177
:10D7F0006C5F74696D2E630010B5044601681448AF
:10D80000814219D0B1F1804F16D01248814213D015
:10D810001148814210D0114881420DD010488142F8
:10D820000AD01048814207D00F48814204D04FF4FB
:10D83000B2710EA001F007FF2068C16841F001013C
:10D84000C1602068016841F001010160002010BD45
:10D85000000001400004004000080040000C0040AF
:10D860000040014000440140004801402E2E2F445A
:10D870007269766572732F53544D3332463478781B
:10D880005F48414C5F4472697665722F5372632F13
:10D8900073746D3332663478785F68616C5F746975
:10D8A0006D2E630010B5044601681948814219D0F5
:10D8B000B1F1804F16D01748814213D016488142EB
:10D8C00010D0164881420DD0154881420AD0154823
:10D8D000814207D01448814204D04FF4A67113A0AE
:10D8E00001F0B1FE022084F839002068016A41F29B
:10D8F0001112114207D1016A9210114203D101683D
:10D9000021F001010160012084F83900002010BDE0
:10D91000000001400004004000080040000C0040EE
:10D920000040014000440140004801402E2E2F4499
:10D930007269766572732F53544D3332463478785A
:10D940005F48414C5F4472697665722F5372632F52
:10D9500073746D3332663478785F68616C5F7469B4
:10D960006D2E630010B5044601681948814219D034
:10D97000B1F1804F16D01748814213D0164881422A
:10D9800010D0164881420DD0154881420AD0154862
:10D99000814207D01448814204D040F2791113A08B
:10D9A00001F051FE2068C16821F00101C1602068CA
:10D9B000016A41F21112114207D1016A921011421B
:10D9C00003D1016821F001010160002010BD0000B9
:10D9D000000001400004004000080040000C00402E
:10D9E0000040014000440140004801402E2E2F44D9
:10D9F0007269766572732F53544D3332463478789A
:10DA00005F48414C5F4472697665722F5372632F91
:10DA100073746D3332663478785F68616C5F7469F3
:10DA20006D2E63002DE9F05F044690F838000D4636
:10DA3000012841D0012084F83800022084F8390000
:10DA400028684FF4805B584516D0B0F5005F13D0BE
:10DA500090B1102810D020280ED030280CD04028AB
:10DA60000AD0502808D0602806D0702804D040F68C
:10DA70006D71E3A001F0E7FD2068816821F0770176
:10DA800021F47F4181602F68EB48EC49EC4AED4B73
:10DA9000ED4EDFF8B883DFF8B8A34FF0804C4FF4B9
:10DAA0000049502F74D00FDC202F72D007DC002FDC
:10DAB00070D0102F50D163E10220BDE8F09F302FCD
:10DAC00069D0402FF6D113E1602F7DD0702F63D045
:10DAD0005F4542D04FF400584745EBD12668864257
:10DAE0000CD066450AD08E4208D0964206D09E429F
:10DAF00004D040F69A71C2A001F0A5FD68684845BF
:10DB000009D040B1022806D00A2804D040F69C7102
:10DB1000BBA001F098FDA86858B1584509D0404510
:10DB200007D0B0F5405F04D040F69D71B4A001F07D
:10DB30008AFDE8680F2804D940F69E71B0A001F074
:10DB400082FDD5E90121EB68206801F06DF82068BD
:10DB5000816841F480418160C3E02568854212D02C
:10DB6000654510D08D420ED095420CD09D420AD012
:10DB7000B54208D0454506D0554504D040F67971E8
:10DB80009FA001F060FD2068816821F00701E2E7B5
:10DB900044E00AE1DFE01DE1266886420CD06645DC
:10DBA0000AD08E4208D0964206D09E4204D040F65B
:10DBB000827193A001F047FD686848450BD050B1D1
:10DBC000022808D00A2800E05BE004D040F6847107
:10DBD0008BA001F038FDA86860B158450AD0B0F5B7
:10DBE000005F07D0B0F5405F04D040F6857184A097
:10DBF00001F029FDE8680F2804D940F6867180A05D
:10DC000001F021FDD5E90121EB68206801F00CF855
:10DC10002168886840F07700886062E02768874262
:10DC200012D0674510D08F420ED097420CD09F4241
:10DC30000AD0B74208D0474506D0574504D040F631
:10DC4000AC716FA001F0FFFC6868484509D040B195
:10DC5000022806D00A2804D040F6AF7168A001F06F
:10DC6000F2FCE8680F2804D94FF47B6164A001F04E
:10DC7000EAFCEA686968206800F0E8FF5021206843
:10DC80002DE0276887420ED067450CD08F420AD01E
:10DC9000974208D09F4206D0B74204D040F6BA71EE
:10DCA00057A001F0D0FC6868484509D040B102286F
:10DCB00006D00A2804D040F6BD7151A001F0C3FC83
:10DCC000E8680F2804D940F6BE714DA001F0BBFCF6
:10DCD000EA686968206800F0CAFF6021206800F0E7
:10DCE000ADFF012084F83900002084F83800E4E614
:10DCF0002768874212D0674510D08F420ED09742D6
:10DD00000CD09F420AD0B74208D0474506D05745AD
:10DD100004D040F6C8713AA001F095FC6868484507
:10DD200009D040B1022806D00A2804D040F6CB71B1
:10DD300033A001F088FCE8680F2804D940F6CC71C4
:10DD40002FA001F080FCEA686968206800F07EFF7F
:10DD500040212068C3E7256885420ED065450CD078
:10DD60008D420AD0954208D09D4206D0B54204D0DB
:10DD700040F6D67122A001F066FC00212068AEE7D3
:10DD8000256885420ED065450CD08D420AD095425B
:10DD900008D09D4206D0B54204D040F6DC7118A0F0
:10DDA00001F051FC1021206899E7256885420ED0CA
:10DDB00065450CD08D420AD0954208D09D4206D0D0
:10DDC000B54204D040F6E2710DA001F03CFC2021E8
:10DDD000206884E7256885420ED065450CD08D42C9
:10DDE0000AD0954208D09D4206D0B54204D040F6F4
:10DDF000E87103A001F027FC302120686FE70000E4
:10DE00002E2E2F447269766572732F53544D333220
:10DE1000463478785F48414C5F4472697665722F6A
:10DE20005372632F73746D3332663478785F686130
:10DE30006C5F74696D2E63000000014000040040B7
:10DE400000080040000C0040004001400044014038
:10DE500000480140704770B50446006801694FF002
:10DE60000005C943890715D4C168C943890711D47E
:10DE7000E91E016101202076206880698007204624
:10DE800002D0FFF7E7FF04E000F098F8204600F02A
:10DE900096F8257620680169C943490717D4C168F7
:10DEA000C943490713D46FF00401016102202076B1
:10DEB0002068806910F4407F204602D0FFF7CAFF37
:10DEC00004E000F07BF8204600F079F82576206821
:10DED0000169C943090716D4C168C943090712D4A7
:10DEE0006FF008010161042020762068C069800776
:10DEF000204602D0FFF7AEFF04E000F05FF82046B6
:10DF000000F05DF8257620680169C943C90617D479
:10DF1000C168C943C90613D46FF01001016108201C
:10DF200020762068C06910F4407F204602D0FFF7B9
:10DF300091FF04E000F042F8204600F040F825761A
:10DF400020680169C943C90708D1C168C943C90725
:10DF500004D1891E0161204600F032F82068016971
:10DF6000C943090609D4C168C943090605D46FF03D
:10DF7000800101612046FFF7AAFA20680169C943C0
:10DF8000490609D4C168C943490605D46FF0400168
:10DF90000161204600F07EF820680169C9438906C6
:10DFA0000BD4C168C943890607D46FF02001016111
:10DFB0002046BDE87040FFF78BBA70BD70477047D0
:10DFC0002DE9F0410068B0F1804F3BD127484EF673
:10DFD00060220188491CB1FBF2F302FB131101809E
:10DFE0002348018811B10188491E0180214900247C
:10DFF000086820B1401E086001D11F4804701F4905
:10E00000086808B1401E08601D4FDFF878800226BE
:10E01000397849B11C4D2868401C2860012913D06B
:10E02000322801DB3C702C60184F3978002909D068
:10E03000174D2868401C286001290ED0322801DBCA
:10E040003C702C60BDE8F0813228EDDB012202211A
:10E050004046FEF7ADFA3E70E5E73228F2DB0122DA
:10E0600011464046FEF7A4FA3E70EAE7440000205D
:10E070004E000020500000204C00002058000020DE
:10E080003A00002000000240400000203B00002039
:10E090003C0000207047704738B5044600680168AE
:10E0A000C26811F0010F02F4807207D032B101682A
:10E0B00041680091E16B41F00101E163016842694F
:10E0C000C1F3400102F0010239B132B10168416887
:10E0D0000091E16B41F00401E16301684269C1F321
:10E0E000800102F0010239B132B10168416800914A
:10E0F000E16B41F00201E16301684269C1F3C001D3
:10E1000002F0010239B132B1016841680091E16B5E
:10E1100041F00801E1630168C068C1F3401100F0FB
:10E12000200019B110B1204600F0CCFD216808682C
:10E13000C968C0F3C01001F0800118B111B12046C8
:10E1400000F0AEFF21680868CA68C0F3801002F0D2
:10E150004002202548B142B1CA68204622F0400260
:10E16000CA6084F8395000F086F9E06B002806D0C8
:10E1700084F8395084F83A502046FFF78CFF38BDB8
:10E1800070B504001ED03549A0698D150028344AA9
:10E19000344B206818D0884209D0904207D098426A
:10E1A00005D0FB2130A001F04EFAA069B0B1A06902
:10E1B000A84213D0B0F5007F10D0B0F5407F0DD04D
:10E1C000FC2108E0012070BD884207D0904205D0B4
:10E1D000984203D0294624A001F035FAA06838B14E
:10E1E000B0F5805F04D04FF481711FA001F02BFACD
:10E1F000E06938B1B0F5004F04D040F203111AA025
:10E2000001F021FA94F83900002520B984F838503B
:10E21000204600F047F8242084F839002068C168BF
:10E2200021F40051C160204600F098FD206801698A
:10E2300021F4904101612068416921F02A01416186
:10E240002068C16841F40051C160E563202084F872
:10E25000390084F83A00002070BD00000010014031
:10E2600000440040001401402E2E2F447269766550
:10E2700072732F53544D3332463478785F48414C93
:10E280005F4472697665722F5372632F73746D33B6
:10E2900032663478785F68616C5F756172742E6382
:10E2A0000000000070B51B4E016802220123032408
:10E2B0000725194886B0B14218D118490E6846F0B2
:10E2C00010060E60096801F01001059161028DE8E9
:10E2D0003E006946FDF7E0FF012200212520FEF700
:10E2E00011FA2520FEF7DEF906B070BD0C4EB142E2
:10E2F000FAD10A49091F0E6846F400360E60096813
:10E3000001F4003105910C218DE83E006946FDF7CE
:10E31000C3FFE9E70010014000000240443802401A
:10E320000044004090F83A30202B25D111B30AB3B5
:10E3300090F83830012B1FD0012380F838308162EB
:10E340008285C2850021C163222280F83A200268BA
:10E35000D36843F48073D3600268536943F00103C8
:10E36000536180F838100068C16841F02001C16035
:10E3700000207047012070470220704770B50F4899
:10E38000104C0F4A017820780D290FD00A2904D0AB
:10E390001154632801D2401C207001F0F7FABDE847
:10E3A0007040012205490848FFF7BCBF00251554FD
:10E3B000034802F0FFFA2570EFE700000800002094
:10E3C000C400002038000020280100202DE9F04181
:10E3D000044690F8390098460D46202849D105B3E7
:10E3E000FAB194F83800012843D0012084F83800AD
:10E3F0000026E663212084F83900A284E2844FF4E9
:10E400008057E08C4346401EE084A0684FF0000235
:10E41000B8424FF08001204611D100F072FEF8B9E9
:10E4200002E00120BDE8F08128882168C0F30800DF
:10E430004860206908B16D1C08E0AD1C06E000F0E2
:10E4400060FE68B9216815F8010B4860E08C00286F
:10E45000D7D1434600224021204600F052FE08B1A9
:10E460000320DFE7202084F8390084F8386000209A
:10E47000D8E70220D6E7704770B586B006466A46F0
:10E48000022102F06FFA002839D000241D4D0BE064
:10E4900006EB440004AA0221801C02F063FA002863
:10E4A0002DD004982855641C00988442F0D3401E57
:10E4B00041B2144801F0FCFA00996A1802F8010C04
:10E4C0001148017049B20F4801F022FC01A801F087
:10E4D00055FB050012D0280610D46A210BA000F0CD
:10E4E00061FE002401AE04E0315D09A000F05AFE97
:10E4F000641CAC42F8DB08A000F054FE012006B01A
:10E5000070BD00005C0400205C000020256300005A
:10E5100025303278000000000D0000007CB5064672
:10E520006A46022102F01EFA002824D00024124D6F
:10E530000CE000BF06EB440001AA0221801C02F09F
:10E5400011FA002817D001982855641C00988442BD
:10E55000F0D3401E41B2084801F0AAFA00996A18A7
:10E5600002F8010C0548017049B2034801F072FD40
:10E57000012800D000207CBD5C0400205C0000204D
:10E580007CB506466A46022102F0ECF900281ED04E
:10E5900000240F4D0CE000BF06EB440001AA02214D
:10E5A000801C02F0DFF9002811D001982855641C66
:10E5B00000988442F0D3401EC1B2054801F0B2F881
:10E5C00000996A1802F8010C0248817001207CBD94
:10E5D0005C0300204600002070B5104C2078002815
:10E5E0001BD100F057FB002000F060FB46F2A8159D
:10E5F000284601F0B9F9012000F04CFB012000F0A1
:10E6000055FB42F6A00000F06FF9284601F0ACF986
:10E6100040F6B83060600220207070BD4C000020D1
:10E6200070B515468AB201464FF6FF731048FFF7E2
:10E63000CDFE0F4C2068406842F2107001F094F952
:10E640000C480021642242800DE023681E68F643D6
:10E65000B60602D54688002EF8D1468836B15B68EA
:10E660006B544280491C4388002BEED1C8B270BD68
:10E67000680100204C0000202DE9F0414A4886B096
:10E680000026016841F004010160016801F0040105
:10E690000591016841F080010160016801F080018D
:10E6A0000591016841F001010160016801F001017B
:10E6B0000591016841F0020101600068032500F046
:10E6C000020005904FF440408DE86100374F6946E5
:10E6D0003846FDF7E1FD4FF40050CDE90006012476
:10E6E000694602943846FDF7D7FD4FF419408DE88E
:10E6F0006100DFF8BC8069464046FDF7CDFD10277C
:10E70000CDE9007469464046CDE90245FDF7C4FDF8
:10E71000012210214046FDF74BFFCDE90054CDE921
:10E72000026569464046FDF7B7FD0420CDE90004C7
:10E7300069464046CDE90245FDF7AEFD01220421C0
:10E740004046FDF735FF0820CDE9000669460294F2
:10E750004046FDF7A1FD4FF2EF308DE86100DFF894
:10E76000548069464046FDF797FDA602CDE9006456
:10E7700069464046CDE90245FDF78EFD002231464F
:10E780004046FDF715FFCDE9007469464046CDE9E6
:10E790000245FDF781FD002210214046FDF708FFEC
:10E7A00006B0BDE8F08100003038024000080240A9
:10E7B00000000240000402400C480B494FF4007274
:10E7C00001604FF48271416000218160C16001618C
:10E7D000C0E905122822C0E90721416281620A21AD
:10E7E000C162FEF7DDBB0000003001406C0000207C
:10E7F00010B50F4886B04FF0804101604FF4FA71B8
:10E800000024C0E90114C821C0E90314FEF7EAFEA0
:10E810004FF48050009069460548FFF703F90494CF
:10E8200004A903480594FEF755FE06B010BD00008C
:10E83000A801002010B50F4886B00D490160642181
:10E840000024C0E901144FF6FF71C0E90314FEF77C
:10E85000C9FE4FF48050009069460648FFF7E2F881
:10E86000049404A903480594FEF734FE06B010BDD5
:10E8700000040040E401002010B50F4886B00D49A7
:10E88000016064210024C0E901140C49C0E90314AB
:10E89000FEF7A8FE4FF48050009069460648FFF747
:10E8A000C1F8049404A904480594FEF713FE06B0C9
:10E8B00010BD0000000C00402002002040420F006C
:10E8C0000848074901604FF4E1314160002181604F
:10E8D0000C22C160C0E904128161C161FFF750BC24
:10E8E00000100140280100200849074AC1E9002022
:10E8F000002088600C22C860C1E904028861C861F8
:10E900000846FFF73DBC00000044004068010020BD
:10E910000907090E002806DA00F00F0000F1E020D8
:10E9200080F8141D704700F1E02080F80014704753
:10E9300070B515480024047014480460144804702D
:10E940001448047014480470144804701448046097
:10E950001448047014480470144804701448047077
:10E96000144D1549154A164B00202C540C541454C0
:10E970001C54401C0828F8DB1248FEF793FF11488E
:10E980000068446270BD0000010000200C000020FF
:10E9900003000020060000200200002005000020E7
:10E9A0001000002007000020090000200A000020BD
:10E9B0000400002028000020180000202000002073
:10E9C000300000202002002001B582B04FF6FF7019
:10E9D0000090012301AA02A90248FEF709FC9DF854
:10E9E00004000EBD6C00002038B50B4600920446B2
:10E9F0000022802100F008F8002804D0606D40F06B
:10EA000020006065032038BD2DE9F0411D46164603
:10EA10000F460446DDF8188035E0681C33D02DB170
:10EA2000FDF7FCFDA0EB0800A8422CD3206841684C
:10EA300021F0E00141606068B0F5827F0BD1A068F1
:10EA4000B0F5004F02D0B0F5806F04D120680168A6
:10EA500021F040010160A06AB0F5005F0AD1206892
:10EA600001684DF6FF72114001602068016841F4B1
:10EA700000510160012084F85100002084F850000A
:10EA80000320BDE8F081206880683840B042C4D1DE
:10EA90000020F6E710B5FDF7C7FDBDE81040FEF712
:10EAA00012BD000030B5214893B00025016841F047
:10EAB00080510160006800F0805011901C4801688E
:10EAC00041F4404101600068022400F4404011908C
:10EAD00001200090052001906005CDE9064003204B
:10EAE0000890C820CDE9090404200B906846FEF781
:10EAF00051F80CA90F2081E83100E002CDE90F05A3
:10EB000003210CA8FDF7A0FEFDF7C4FF4FF47A71B6
:10EB1000B0FBF1F0FEF7C3FC0420FEF78DFC0022F1
:10EB20001146501EFDF7EEFD13B030BD40380240D7
:10EB3000007000401048016841F4700101600F4806
:10EB4000016841F0010101600C4A002108321160A6
:10EB500002680B4B1A400260031D0A4A1A600268E1
:10EB600022F48022026005480C3001600249064808
:10EB7000803908607047000088ED00E000380240EE
:10EB8000FFFFF6FE1030002400C000080148FFF728
:10EB900062B90000A8010020F0B502681B4B1C4CB4
:10EBA0009F031C4D1C4E984207D0B84205D0A0428E
:10EBB00003D0A84201D0B04204D122F0700C4A68C0
:10EBC00042EA0C02984210D0B8420ED0A0420CD0BB
:10EBD000A8420AD0B04208D0104CA04205D0104C38
:10EBE000A04202D00F4CA04203D122F44074CA6864
:10EBF000224302608A68C2620A688262984201D136
:10EC00000969016301214161F0BD0000000001407C
:10EC10000004004000080040000C0040004001409B
:10EC2000004401400048014010B5846842EA0322D4
:10EC300024F47F440A432243826010BD826822F09C
:10EC400070020A4342F007018160704710B5036A01
:10EC5000046A24F001040462846924F0F00444EAA4
:10EC6000021423F00A020A438461026210BD10B547
:10EC7000036A23F0100303628369046A23F4704378
:10EC800043EA023224F0A00343EA011182610162E7
:10EC900010BD0000044B20B1012204211846FDF7ED
:10ECA00087BC0022F9E7000000000240044B4FF44B
:10ECB000806118B100221846FDF77ABC0122FAE7FC
:10ECC0000004024010B590F83A10222901D0022029
:10ECD00010BD8168B1F5805F11D00169002901681C
:10ECE0001FD0496801F07F03816A4A1C82620B7061
:10ECF000C18D491E0904090CC18518D02BE0026999
:10ED0000816A002A0268526805D0D2B20A80816AFC
:10ED1000491C8162ECE7C2F308020A80816A891CFF
:10ED2000F7E74A68816A4B1C83620A70E0E7016872
:10ED3000CA6822F02002CA600168CA6822F48072A0
:10ED4000CA6001684A6922F001024A61202180F804
:10ED50003A10FFF713FB002010BD00002DE9F04131
:10ED600004464068BC49884204D340F2DD61BBA040
:10ED700000F069FCE06838B1B0F5005F04D040F203
:10ED8000DE61B6A000F05FFC206950B1B0F5806F85
:10ED900007D0B0F5C06F04D040F2DF61AFA000F043
:10EDA00052FC60694FF6F371084200D120B94FF46C
:10EDB000DC61AAA000F047FC2268106920F44051F1
:10EDC000E068084310612268D06849F20C6188430A
:10EDD0002369A168E569194363692B43194301431A
:10EDE000D1602268506920F44071A06908435061E5
:10EDF000E2696425B2F5004FA748A84922684FF0A0
:10EE000032083FD08A4201D082427CD1FDF772FEA7
:10EE100000EBC00101EB001061688900B0FBF1F666
:10EE2000FDF768FE00EBC00101EB0010616889008E
:10EE3000B0FBF1F0B0FBF5F06FF01801484306EBC2
:10EE4000800108EB0110B0FBF5F000F0F006FDF7D3
:10EE500051FE00EBC00101EB001061688900B0FBBE
:10EE6000F1F0B0FBF5F006EB0016FDF743FE00EB0A
:10EE7000C00101EB001061688900B0FBF1F7FDF7FC
:10EE800039FED2E08A4201D082423DD1FDF732FE06
:10EE900000EBC00101EB001061684900B0FBF1F02C
:10EEA000B0FBF5F00601FDF725FE00EBC00101EB1C
:10EEB000001061684900B0FBF1F7FDF71BFE00EBA5
:10EEC000C00101EB001061684900B0FBF1F0B0FB3C
:10EED000F5F06FF01801484307EB800108EBC10023
:10EEE000B0FBF5F000F0F80006EB4006FDF702FE7F
:10EEF00000EBC00101EB001061684900B0FBF1F7C5
:10EF0000FDF7F8FD3CE055E0FDF7DEFD00EBC0014C
:10EF100001EB001061684900B0FBF1F0B0FBF5F0C7
:10EF20000601FDF7D1FD00EBC00101EB00106168A7
:10EF30004900B0FBF1F7FDF7C7FD00EBC00101EBA5
:10EF4000001061684900B0FBF1F0B0FBF5F06FF024
:10EF50001801484307EB800108EBC100B0FBF5F056
:10EF600000F0F80006EB4006FDF7AEFD00EBC00137
:10EF700001EB001061684900B0FBF1F7FDF7A4FD5B
:10EF800000EBC00101EB001061684900B0FBF1F03B
:10EF9000B0FBF5F06FF01801484307EB800108EB78
:10EFA000C100B0FBF5F000F0070021683044886034
:10EFB000BDE8F081FDF788FD00EBC00101EB00101A
:10EFC00061688900B0FBF1F6FDF77EFD00EBC00142
:10EFD00001EB001061688900B0FBF1F0B0FBF5F0C7
:10EFE0006FF01801484306EB800108EB0110B0FBFD
:10EFF000F5F000F0F006FDF767FD00EBC00101EB56
:10F00000001061688900B0FBF1F0B0FBF5F006EB91
:10F010000016FDF759FD00EBC00101EB001061681F
:10F020008900B0FBF1F7FDF74FFD00EBC00101EBEC
:10F03000001061688900B0FBF1F0B0FBF5F06FF0F3
:10F040001801484307EB800108EB0110B0FBF5F015
:10F0500000F00F00A9E70000A137A0002E2E2F44DA
:10F060007269766572732F53544D33324634787813
:10F070005F48414C5F4472697665722F5372632F0B
:10F0800073746D3332663478785F68616C5F756174
:10F0900072742E6300000000001401400010014053
:10F0A00090F83910212901D0022070478168B1F50C
:10F0B000805F016A0BD04A1C0262026809785160C5
:10F0C000C18C491E0904090CC1840ED017E00988BF
:10F0D0000268C1F30801516001690029016A02D088
:10F0E000491C0162ECE7891CFBE70168CA6822F051
:10F0F0008002CA600068C16841F04001C160002020
:10F1000070472DE9F0471D4690460E460446FDF730
:10F1100085FA07465FEA08004FF000094FF0200823
:10F1200008D032E0681C05D095B1FDF777FAC01B16
:10F13000A8420DD82068006836EA0000F2D129E024
:10F14000681C22D025B1FDF769FAC01BA8421CD962
:10F150002068C16821F08001C1602068C16821F089
:10F160002001C1602068C16821F48071C1602068FD
:10F17000416921F00101416184F8398084F83A80C5
:10F1800084F838900320BDE8F0872068006836EAEC
:10F190000000D5D00020F6E70148FEF77DBF000053
:10F1A000280100200FB4054B10B503A9044A0298AA
:10F1B00000F018F810BC5DF814FB0000CDF9000851
:10F1C0006800002002E008C8121F08C1002AFAD116
:10F1D00070477047002001E001C1121F002AFBD1D7
:10F1E000704700002DE9FF4F8DB00F460546002601
:10F1F00006E025280BD0DDE90F1290476D1C761C28
:10F2000028780028F5D111B03046BDE8F08F0024F1
:10F21000A246A1460122EC4900E0044315F8013F53
:10F22000203B02FA03F00842F7D128782A2810D0B0
:10F230006FF02F022878A0F13001092914D80AEBC9
:10F240008A0102EB410144F0020400EB010A6D1C4B
:10F25000F0E701CF5FEA000A03D544F40054CAF195
:10F26000000A44F002046D1C28782E2817D115F8E6
:10F27000010F44F004042A280ED06FF02F022878E2
:10F28000A0F1300109290AD809EB890102EB4101FB
:10F2900000EB01096D1CF2E757F8049B6D1C287800
:10F2A0006C280FD006DC4C2817D068280DD06A28AF
:10F2B00014D104E0742810D07A280FD10DE044F462
:10F2C00000140AE044F4801401E044F44014697826
:10F2D000814202D104F580146D1C6D1C2A786E2ABF
:10F2E0001FD00CDC632A31D004DC002A8BD0582AD2
:10F2F00011D1A3E0642A68D0692A0CD165E0732A91
:10F300002ED004DC6F2A73D0702A04D19BE0752ABA
:10F310006FD0782A6ED01046DDE90F129047761C28
:10F3200050E1C4F30250022806D0032809D0042873
:10F3300001CF09D0066045E101CFF117C0E90061B6
:10F3400040E101CF06803DE106703BE117F8040B78
:10F350008DF8000000208DF80100EB46012003E04D
:10F3600057F804BB4FF0FF3061074FF0000102D4A3
:10F370000DE008F10101884649450FDA8045F8DBC8
:10F380001BF808100029F4D108E008F101018846B3
:10F390008142FADB1BF808100029F6D1DDE90F23C2
:10F3A000AAEB08008146214600F036F9304400EB14
:10F3B000080604E0DDE90F121BF8010B9047B8F1D5
:10F3C0000108F7D221464846F7E00A21C4F3025368
:10F3D0004FF0000B0891022B04D001CFC117032B73
:10F3E00009D00AE0FF1D27F00707F7E8020108E04F
:10F3F00032E01FE020E000B2C117042B01D140B27F
:10F40000C117031E71F1000307DA4FF0000CD0EBB7
:10F410000C006CEB01012D2302E0230504D52B2306
:10F420008DF82430012303E0E30701D02023F7E720
:10F43000984658E00A2110E010210EE010204FF00D
:10F44000000B08900CE010214FF0000B44F0040476
:10F450004FF00809089103E008214FF0000B0891D4
:10F46000C4F30253022B04D001CF0021032B06D09A
:10F4700006E0FF1D27F00707F7E8020103E080B26E
:10F48000042B00D1C0B24FF0000823072BD5702AFF
:10F4900007D0DDF820C08CF0100C5CEA0B0C05D016
:10F4A0000EE040238DF82430012308E050EA0103E8
:10F4B00006D030238DF824308DF82520022398467D
:10F4C000DDF820C08CF0080C5CEA0B0C0BD150EA84
:10F4D000010301D1630706D530238DF824304FF0A6
:10F4E0000108A9F10109582A04D038A20B9208AAF0
:10F4F0000A920BE03AA2F9E75B46089AFCF768FE2D
:10F500000B9B9B5C0A9A521E0A92137050EA0102EE
:10F51000F2D10A98ADEB000000F1200B600702D594
:10F5200024F4803401E04FF00109D94502DDA9EB54
:10F530000B0000E0002000EB0B0141440890AAEB17
:10F54000010AE00306D4DDE90F232146504600F00E
:10F5500063F806444FF0000908E009A911F8090012
:10F56000DDE90F12904709F10109761CC145F4DB72
:10F57000E0030CD5DDE90F232146504600F04CF89E
:10F58000064404E0DDE90F1230209047761C08990C
:10F59000481E08900029F5DC08E00A980A990078CE
:10F5A000491C0A91DDE90F129047761CBBF100015E
:10F5B000ABF1010BF1DC21465046DDE90F2300F0F1
:10F5C00019F806446D1C1BE609280100303132335E
:10F5D000343536373839616263646566000000008F
:10F5E0003031323334353637383941424344454679
:10F5F000000000002DE9F041044600251E46174694
:10F60000880404D405E039462020B0476D1C641EF0
:10F61000F9D52846BDE8F0812DE9F04104460025E2
:10F620001E469046C80301D5302700E020278804F5
:10F6300004D505E041463846B0476D1C641EF9D537
:10F640002846BDE8F081704710B50A7803464AB1F4
:10F65000092A10461DD2401EC4B20320A0EB54005C
:10F66000185C4FE00079820706D50122C00701D05F
:10F67000522053E0542051E00622C00701D07220EE
:10F680004CE074204AE000093EE0373041E0303081
:10F690003FE00A280CD25C7904F00F00092801D958
:10F6A000373000E03030ECB11B79DB071AD130E0A5
:10F6B0001A2A19D2A2F10A00C4B203EB5400E407DB
:10F6C000807900D1000900F00F00092801D93730F6
:10F6D00000E03030521CD2B25C79A2F10A03B3EBE5
:10F6E000440F1BD11A2219E00D480078A0B11E2A40
:10F6F00012D2A2F11A00C4B2022C02D2D889000A96
:10F7000000E0987BE307BED000F00F000928BED9C7
:10F71000BBE7521CD2B201E00D20FF220A7010BDDF
:10F7200046000020034610B50020024604E09C5C21
:10F73000521C2044C0B2D2B28A42F8D310BD00009D
:10F7400001480088704700004400002070B50D4853
:10F75000FEF708F90B4C4FF08040002520604FF475
:10F76000FA70C4E90105C820C4E903052046FDF785
:10F7700039FF20684562044805802046BDE8704096
:10F78000FEF73AB8A8010020440000202DE9F84314
:10F79000054601786A484FF000084FF001094429F6
:10F7A00005D0642977D180F80080032402E080F836
:10F7B0000090082421466A46681C01F0D3F800280E
:10F7C0006AD060490098086028196A460121401CE7
:10F7D00001F0C8F800285FD05B4E00983070002719
:10F7E000A41C1DE004EB470028446A460221401C8B
:10F7F00001F0B8F800284FD054490098C855307827
:10F800006A4604EB400000EB470028440221401CFC
:10F8100001F0A8F8002870D04D490098C8557F1C09
:10F8200030788742DEDB307804EB80002844407873
:10F83000672806D0307804EB8000284440784728B9
:10F840005AD1307804EB8000284441784148672938
:10F850000AD0494601703078641C04EB80002844CB
:10F860004078702848D101E04146F3E7307804EB56
:10F870008007BF1C00E07F1CE85D752801D00028D0
:10F88000F9D12819DFF8D08010F8010C732804D0C2
:10F89000532840D052E02FE02FE0304981F800900B
:10F8A000E85D002829D0307804EB8000381A801EEB
:10F8B000C1B230786A4604EB80002844801C01F015
:10F8C00051F8002819D00098C8F800000024244EF0
:10F8D00017F1010707EB440028446A46022101F0B2
:10F8E00041F8002809D000983055641C082CF1DB41
:10F8F0001037E85D6D2802D00020BDE8F883E819D4
:10F900006A460221401C01F02DF80028F5D0154967
:10F910000098087012E0307804EB8000381A801EDE
:10F92000C1B230786A4604EB80002844801C01F0A4
:10F9300019F80028E1D00098C8F800000120DCE7A1
:10F94000040000200C00002003000020180000200C
:10F9500020000020060000201000002007000020EA
:10F96000300000200900002000EB400081004FF033
:10F97000E020416100218161012202610269D30717
:10F9800001D0D203FAD50161816170470548417801
:10F99000002905D10121417000220348FCF708BE6F
:10F9A000704700003A00002000000240054801783E
:10F9B000002906D101210170002202210248FCF732
:10F9C000F7BD70473A0000200000024013B54FF623
:10F9D000FF73012269460348FEF7F8FCFFF7E6FFD4
:10F9E00000981CBD28010020F0B5304A907902F142
:10F9F0002801012502F12004A1F1100398B101288A
:10FA000010D1D078084410F8010CD678264416F8A6
:10FA1000016C401CB042D0782AD8084410F8011D6F
:10FA2000491C0170F0BD08782678401CB04203D80C
:10FA30000878401C0870F0BD1878087001200FE0AD
:10FA40001E5C275CBE420AD00E5C275C761CBE4260
:10FA500003D80B5C5B1C0B5405E01E5C0E54401C71
:10FA6000D678B042ECDBD1788842E4D15571F0BD54
:10FA7000184410F8010CD6780E4406F8010CD07822
:10FA8000801EF3D41E5C275CBE420CD00E5C275C4B
:10FA9000761CBE4205D80B5C5B1C0B540028E5DBD2
:10FAA000F0BD1E5C0E54401EECD5DFE700000020C8
:10FAB000F0B5FF2200231FE00024067880254FF0D8
:10FAC000010C2E4208D0170601D5012700E01C27A3
:10FAD0000CEB42027A4006E000275FEA026E00D596
:10FAE0001D2787EA4202641CE4B26D08D2B2082CDA
:10FAF000E7D35B1CDBB2401C8B42DDDBD043C0B2E2
:10FB0000F0BD0000F0B51B4985B002200870402010
:10FB10000025CDE90005184F0124694602943846B6
:10FB2000FCF7BAFB0820CDE900040326CDE9024624
:10FB300069463846FCF7B0FB1020CDE90004CDE95A
:10FB4000024669463846FCF7A7FB2020CDE90005B0
:10FB5000694602943846FCF79FFB0022082138468C
:10FB6000FCF726FD002210213846FCF721FD05B0E8
:10FB7000F0BD000054000020000402402DE9F047D1
:10FB80008146002501F0EEF95E4E5F4C4FF4FA67B6
:10FB90002068406AB84205D820213046FCF7DCFCDA
:10FBA0000128F5D12068406AB84205D95648FDF7CA
:10FBB00079FE8520BDE8F08701F0D4F92068406A1D
:10FBC000212805D820213046FCF7C6FC0128F5D0B5
:10FBD0002068406A192875D3B0462068406A3F28DB
:10FBE00005D820214046FCF7B7FC0128F5D1206854
:10FBF000406A332866D8002637467006060E01F0A4
:10FC0000B1F92068416A0829FCD920214046FCF757
:10FC1000A3FC012802D046F0010609E02068406AF2
:10FC2000302805D220214046FCF796FC0128F5D06B
:10FC30002068406A302805D220214046FCF78CFC21
:10FC40000128F5D17F1C082FD7DB2068406A3028B7
:10FC500004D209F805606D1CEDB2CCE7DFF8AC907A
:10FC600000264FF0010A274601220821444640465B
:10FC7000FCF79EFC012210212046FCF799FC01F0C4
:10FC800071F9C6F107000AFA00F499F8010004427C
:10FC900001D0052000E00C2039684A6A8242FCD974
:10FCA000002208214046FCF783FC00221021404638
:10FCB000FCF77EFC01F056F999F80100044202D0ED
:10FCC000112401E019E00A240120FFF74DFE05E0B0
:10FCD00020214046FCF740FC01280ED03868406ADD
:10FCE000A042F5D9761C072EBEDD0748FDF7DAFDE8
:10FCF0000C2D00D90C2528465CE70348FDF7D2FD02
:10FD0000832057E700040240E40100205400002053
:10FD10002DE9F05F654D0746002680788B466870B8
:10FD20000C2902DD0420BDE8F09F614C012208216E
:10FD30002046FCF73DFC012210212046FCF738FC50
:10FD40001E20FFF711FE4FF47A70686020212046D4
:10FD5000FCF702FC0128686814D00028E3D00022D8
:10FD6000082125462046FCF723FC002210212846C6
:10FD7000FCF71EFC1220FFF7F7FD0024DFF834A18A
:10FD8000A94647E00028E1D0E9E700250122082143
:10FD90004846FCF70DFC012210214846FCF708FC00
:10FDA00001F0E0F8395DC5F10702012000FA02F820
:10FDB00011EA080F01D0052200E00C22DAF8001049
:10FDC0004B6A9342FCD9002208214846FCF7F0FB1D
:10FDD000002210214846FCF7EBFB01F0C3F8395D27
:10FDE00011EA080F01D0112000E00A20804601200E
:10FDF000FFF7BAFD05E020214846FCF7ADFB0128DE
:10FE000033D0DAF80000416A4145F4D96D1C072D62
:10FE1000BCDD641C5C45B8DB002208214D46484629
:10FE2000FCF7C6FB01F09EF854462068406A3F2864
:10FE300005D820212846FCF78FFB0128F5D1206842
:10FE4000406A3F282DD800277006060E01F08AF878
:10FE50002068416A0929FCD920212846FCF77CFB4F
:10FE6000012807D046F001060EE01248FDF71AFD02
:10FE7000032058E72068406A3F2805D820212846FB
:10FE8000FCF76AFB0128F5D02068406A3F2805D8B6
:10FE900020212846FCF760FB0128F5D17F1C082FA4
:10FEA000D2DB0448FDF7FEFC30463CE7540000205E
:10FEB00000040240E4010020F0B51A4885B0012496
:10FEC000047040200025CDE90005174F69460294D3
:10FED0003846FCF7E1F90820CDE900040326CDE916
:10FEE000024669463846FCF7D7F91020CDE90004F0
:10FEF000CDE9024669463846FCF7CEF900221021CA
:10FF00003846FCF755FB2020CDE9000569460294F0
:10FF10003846FCF7C1F9002208213846FCF748FBB7
:10FF200005B0F0BD54000020000402402DE9F04768
:10FF3000054601F017F8454C454E09E02068406A37
:10FF4000642805D34148FDF7ADFC8520BDE8F08766
:10FF500040213046FCF700FB0128EFD101F002F808
:10FF600003E02068406AEF283FD240213046FCF78A
:10FF7000F3FA0128F5D03548FDF794FC2068406A73
:10FF8000A32832D340213046FCF7E6FA01280ED0F0
:10FF90005FF0000700F0E6FF4FF000084FEA060AA6
:10FFA0004FF00809287856464000287005E00127E0
:10FFB000F0E72068406AA32842D240213046FCF78F
:10FFC000CBFA012800D00020B842F2D04021B2463E
:10FFD0003046FCF7C1FA012809D000272068406AA2
:10FFE00086B200F0BFFF222E03D28320AEE70127A6
:10FFF000F4E7602E09D240215046FCF7ADFA012803
:020000040801F1
:1000000003D0287840F001002870613E422E09D2CA
:1000100040215046FCF7A0FA012803D1287840F08F
:1000200001002870A9F10100C0B25FEA0009B9D14E
:1000300008F1010000F0FF086D1CB8F10C0FAFD300
:100040000248FDF72FFC404680E70000E401002055
:10005000000402402DE9F05F884681460C2902DD4C
:100060000420BDE8F09F3E4C4FF47A703D4D4FF0B8
:10007000010A606040212846FCF76EFA012860689A
:1000800012D00028EDD000BF00F06CFF0122082143
:100090002C462846FCF78CFA334D2868416AC8295B
:1000A000FCD30026A34646E00028E3D0ECE700247A
:1000B000E043C00725D0002208215846FCF778FA13
:1000C00000F050FF19F80610C4F107020AFA02F016
:1000D000014201D0802700E040270220FFF744FCC6
:1000E00005E040215846FCF737FA012804D028687B
:1000F000406AB842F5D91AE01B48FDF7D3FB03204C
:10010000AFE7012208215846FCF752FA00F02AFF17
:1001100019F80610C4F107020AFA02F0014201D0F0
:10012000402000E0802029684A6A8242FCD9641C91
:10013000072CBDDD761C4645B9DB00220821584658
:10014000FCF736FA00F00EFF28684FF48C71426A13
:100150008A42FCD90448FDF7A5FB012081E7000095
:100160005400002000040240E4010020AEB0FCF77F
:1001700063FAFEF797FCFEF77FFAFEF71DFBFEF72A
:100180009FFBFEF735FBFEF755FBFEF775FB00F016
:1001900093F9A54C012202212046FCF709FA01221D
:1001A00011462046FCF704FAA0484FF0000A5446D6
:1001B00080F800A09E4880F800A09E48FDF772FBE2
:1001C0009D48FDF76FFB9D48FDF716FB01229C49FA
:1001D0009C48FEF7A7F80025A9462E468DF89C40BE
:1001E000FEF7A6FBDFF858B2ABF1080B01229449E9
:1001F0009448FEF797F89BF800005C4600287CD0F6
:100200004FF400519048FCF7A7F900287CD16846CC
:1002100000EB0910074600F0D3F9002874D097E8E6
:100220000F000DF1880C01278CE80F009DF88E005F
:10023000B7EB101F1DD122982A9003208DF8AD0036
:100240009DF88C002AAA41089DF8AC0061F341009A
:100250008DF8AC0030208DF8AE0001205146131807
:10026000401C99710828FADB2AA800F047FA0028F8
:10027000FAD0607830B3E07920B3A07810BB607911
:1002800000BB9DF88D20A07A82421BD36C4B0020CE
:100290000DF1880C28330EE094F8098007FA00F17C
:1002A00011EA080F06D00CEB000113F800808979E1
:1002B000414502D1401C8242EEDC824202D167718C
:1002C000FEF736FB09F101006D1C00F00709EDB2E5
:1002D000E846574616E000BF08EB061027A9FFF7CF
:1002E000B3F9014659A0FEF75DFF9DF89C00FF2879
:1002F00008D18DF89C70761C00E005E06D1E06F0BC
:100300000706EDB2002DE7D16078E0B3A078D0BB4E
:100310006079C0BBDFF81C81D8F80000406A6169D1
:1003200088426169A0EB010001D249490844216972
:1003300088422BDBE0682090E0788DF885002079FA
:1003400028B19DF8840040F002008DF884003C4BF9
:10035000002020AA203303E0195C1718401CB97153
:10036000E1788842F8DB20A800F0C8F90028FAD02C
:1003700000F098FDD8F80000406A6061FFF734FB98
:10038000607900B100E001E0FEF7D2FADFF8C48046
:1003900098F80000D0B131482F4A01783048FEF774
:1003A0003FF9071E10DD6B2128A0FEF7FBFE00249D
:1003B00005E02948015D2BA0FEF7F4FE641CBC4259
:1003C000F7DB2AA0FEF7EEFE88F800A028480078A8
:1003D00001287FF40BAF2748FFF7A8FD04003FF486
:1003E00005AF20063FF502AF601E41B22148FFF77E
:1003F0005FFBDFF88080014608EB040010F8010C79
:100400008142E6D16A2111A0FEF7CCFE002705E06B
:1004100018F8071013A0FEF7C5FE7F1CA742F7DBF4
:1004200012A0FEF7BFFEE1E6000002403A00002005
:100430003B00002020020020E4010020A801002051
:100440000800002028010020000802402563000069
:1004500040420F00470000205C02002048000020BE
:100460005C03002025303278000000000D00000001
:1004700054000020680400202DE9F0410D4C164680
:100480000F460546002210212046FCF791F8052072
:10049000FEF79AFA2846FEF797FA3846FEF794FADE
:1004A0003046FEF791FA2046BDE8F04101221021C6
:1004B000FCF77EB80000024070B5641C14F0FF0425
:1004C000FBD1244D002210212846FCF771F8C020F2
:1004D000FEF77AFA012210212846FCF769F8641C1D
:1004E00014F0FF04FBD187210F2000F01FFA002138
:1004F000602000F01BFA0021702000F017FA0021A4
:10050000202000F013FA0021212000F00FFA002132
:10051000222000F00BFA0021232000F007FA00212E
:10052000242000F003FA0021252000F0FFF900212B
:10053000262000F0FBF90021272000F0F7F9032125
:100540002B2000F0F3F9BDE8704003229A21C1206E
:1005500000F0DAB90000024070B50C4D04460022EC
:1005600010212846FCF724F80320FEF72DFA204638
:10057000FEF72AFAFF20FEF727FA0446012210218F
:100580002846FCF715F8204670BD00000000024028
:1005900070B50A4D002210212846FCF709F8A0206A
:1005A000FEF712FAFF20FEF70FFA0446012210218F
:1005B0002846FBF7FDFF204670BD0000000002400A
:1005C0002DE9F041044600F081F80546400601D5CA
:1005D000002602E028063AD50426FFF7B1F8E081AC
:1005E0002079E90861F30000290961F34100DFF88F
:1005F000D8802071002210214046FBF7D9FF46F039
:100600009000FEF7E1F9207980074FF0FF0021D537
:10061000FEF7DAF940052060FF20FEF7D5F900F07B
:10062000E002216800F0030041EA423141EA004063
:100630002060FF20FEF7C8F9216841EA0020206011
:10064000FF20FEF7C1F921680843206013E0002075
:10065000BDE8F081FEF7B8F9C0002060FF20FEF78A
:10066000B3F9216841EA50102060FF20FEF7ACF991
:10067000FF20FEF7A9F9FF20FEF7A6F900F00F070B
:1006800067712079C0070FD1082F02D908270025EC
:1006900001E0002506E0FF20FEF796F961196D1CC8
:1006A0008871EDB2BD42F6D3012210214046FBF71E
:1006B0007FFF36B1022100222C20FFF7DDFE012052
:1006C000C6E70121F7E700000000024070B50A4DBF
:1006D000002210212846FBF76BFFB020FEF774F9CB
:1006E000FF20FEF771F90446012210212846FBF78E
:1006F0005FFF204670BD0000000002402DE9F0477A
:100700000446FFF745FF6779082F00D9082700F056
:100710005400DFF81881142819D005DC68B10428CA
:1007200015D0102806D10FE040280AD0442808D060
:10073000502809D00020BDE8F08750260425032169
:100740000BE0402602250AE03026002507E050266F
:1007500098F80010042539B3491E88F80010DFF816
:10076000D090002210214846FBF722FF45F04000C0
:10077000FEF72AF92079800722D52068C0F3475078
:10078000FEF722F92068E02101EA5031C0F3014070
:10079000014341F00800FEF717F92088C0F3072055
:1007A000FEF712F9207819E0032211464020FFF7E6
:1007B00063FE032211463020FFF75EFE0221CCE7E4
:1007C0002088C0F3C700FEF7FFF820784007000E2E
:1007D000FEF7FAF80020FEF7F7F80020FEF7F4F82D
:1007E0002079C007607904D040F04000FEF7ECF8B3
:1007F0000BE0FEF7E9F8002505E060198079FEF7C7
:10080000E3F86D1CEDB2BD42F7D30122102148463A
:10081000FBF7CEFE0A20FFF7A7F898F8000040F09B
:100820000801304600F082F8012084E739000020FA
:10083000000002402DE9F0410C46074601461D46E6
:100840001646002000F072F804F0E0042146012072
:1008500000F06CF83946042000F068F844F0080114
:10086000052000F063F83146082000F05FF805F03D
:10087000E0042146092000F059F83146102000F02C
:1008800055F844F00801112000F050F80021142020
:1008900000F04CF80021152000F048F80021182045
:1008A00000F044F8BDE8F0410021192000F03EB806
:1008B0002DE9F0410F46C043C1B21D461646202027
:1008C00000F034F8E02424EA0701212000F02EF89B
:1008D0000021222000F02AF80021232000F026F831
:1008E000F043C1B2242000F021F824EA05012520BC
:1008F00000F01CF80021262000F018F8BDE8F041B7
:100900000021272000F012B870B50C4601461546AC
:100910002A2000F00BF82146292000F007F829468C
:10092000BDE87040282000F001B8000070B50C4C04
:100930000E460546002210212046FBF739FE022014
:10094000FEF742F82846FEF73FF83046FEF73CF83F
:100950002046BDE8704001221021FBF729BE0000AF
:100960000000024030B5002313601BE00378F3B1B0
:1009700013681C0114600378A3F13005092D02D817
:100980002344303B0CE0A3F14105052D02D823445C
:10099000373B05E0A3F16105052D08D82344573BFB
:1009A000401C1360491EC9B2E0D2012030BD0020B6
:1009B00030BD00002DE9FF470546007807244FF0C1
:1009C00000094FF00108FE4FFE4E57287ED00FDC85
:1009D000A0F1430014287AD2DFE800F0C97979E960
:1009E0008079797979BFFDFCAA7979D929D9FBFA7F
:1009F0006C286DD00EDCDFF8D0A3662869D004DC4B
:100A00005A2867D0622862D1B9E16A2875D06B286C
:100A1000F9D1C1E173283CD004DC6D286ED0722876
:100A2000F1D1B4E074286AD07628ECD190E1307826
:100A30000028E8D1687830380928CCD2DFE800F007
:100A400005090F13161A1E2225000622AD21FB20D0
:100A500002E00622AD21DD20FFF756FF6FE10622FE
:100A6000AD21CB20F8E70622AD2101E00422A4212C
:100A7000C520F1E70422A421C220EDE703229A2138
:100A8000C120E9E70422A32101E003229A21C0202A
:100A9000E2E730780028B6D16A460221681CFFF7E9
:100AA00061FF002813D001AA0221E81CFFF75AFFBA
:100AB0000028F7D002AA0221681DFFF753FF002883
:100AC000F0D00298C2B20198C1B204E018E0D6E0BA
:100AD00039E08EE0D4E00098C0B2BDE73878002855
:100AE00091D16A460221681CFFF73CFF0028D9D04B
:100AF0000098C0B2FFF730FD27E182E1D3E046E085
:100B00003878002884D16A460221681CFFF72AFF42
:100B10000028C7D001AA0221E81CFFF723FF002804
:100B2000C0D00198C1B20098C0B2FFF7FFFE06E145
:100B300030780028AFD10022E0210F20FFF79CFC85
:100B4000FEF704FE07E030780028A4D14022E0211F
:100B50000F20FFF791FC40461CE1307800289AD125
:100B60006022E0210F20FFF787FC022012E130789D
:100B700038B18022E0210F20FFF77EFC86F800903C
:100B80000D24387800288DD0FDF7D2FE64E130784E
:100B90000128FBD1284600F0EFF90028F6D028788C
:100BA0005A287BD25A2189A0FEF7FCFAC7E0387890
:100BB0000028EBD12D20FFF7CFFC0024C10700D087
:100BC0000424810901D044F0080410F0180F03E058
:100BD000B7E03DE1C7E08EE001D044F0200480069C
:100BE00001D544F08004462178A0FEF7DBFA2046C8
:100BF000ABE030780128C9D1687875497A2808D0E7
:100C0000502813D0722818D064281CD044281AD039
:100C100022E181F800806F48FCF744FE6D490968C5
:100C2000C1F824906C49C1F8009003E081F800906D
:100C300087F8009000F036F91DE038780028A5D03C
:100C400081F8009014E0387800289FD1681CFEF7E6
:100C50009DFD002813D00020604B6149614A02E0ED
:100C60001C5C0C54401C1478A042F9DB87F800800F
:100C70005848FCF769FD0D245BA0FEF793FAEBE002
:100C8000387800285CD16A460121681CFFF76AFEAB
:100C9000002855D0009810B1012101E0D6E00021D4
:100CA0008AF800104BE03078002849D16A460221CA
:100CB000681CFFF757FE002842D001AA0221E81C59
:100CC000FFF750FE00283BD002AA0221681DFFF763
:100CD00049FEA8B303AA0221E81DFFF743FE78B33B
:100CE0000398C3B20298C2B20198C1B20098C0B2D0
:100CF000FFF7DEFD23E0307810BB6A460221681C56
:100D0000FFF730FEE0B101AA0221E81CFFF72AFE3E
:100D1000B0B102AA0221681DFFF724FE80B103AA28
:100D20000221E81DFFF71EFE50B10398C3B20298DE
:100D3000C2B20198C1B20098C0B2FFF77BFD0D248A
:100D40008AE03878D0BB562105E000F091F8F6E74C
:100D5000387898BB76211DA0FEF724FA002000F019
:100D600087F80120F1E7387840BB4E2117A0FEF745
:100D700019FA04214FF6FF7000F0D8F8DFE7FDF70D
:100D8000D7FD30780028DAD08022E0210F20FFF74D
:100D900073FB48463070D2E79AF80100564668B9AE
:100DA0006878492858D0692856D06B2854D10F4FFD
:100DB000387808B9FDF710FC387819E04CE00000ED
:100DC00001000020000000204600002025630000F4
:100DD0000200002020020020140000201800002043
:100DE0002800002003000020660000004C000020C6
:100DF000022831D1A81CFDF7C3FB68B386F8018037
:100E000024E01A4E69783078702902D0762923D1EF
:100E100011E0022804D0FEF775FE307802281BD1BD
:100E20007721AFF25800FEF7BDF9A81CFDF724FBAF
:100E3000002819D110E0012804D0FFF73DF83078E0
:100E4000012809D1A81CFDF769FB28B17A21AAE67F
:100E500088F31388FBF7E6FC2146AFF2900004B05C
:100E6000BDE8F047FEF79EB9BDE8FF8754000020BB
:100E700010B501090446092901D9373100E03031A4
:100E800007A0FEF78FF904F00F01092901D93731C6
:100E900000E03031BDE8104001A0FEF783B900004A
:100EA0002563000070B514480078144C30B1472118
:100EB00013A0FEF777F9216812A005E0672110A0C2
:100EC000FEF770F9216811A0FEF76CF9114D297831
:100ED00011A0FEF767F90024104E04E0315D10A068
:100EE000FEF760F9641C28788442F7DBBDE87040A7
:100EF0000DA0FEF757B90000040000200C000020F0
:100F00002563000025303878000000002530337854
:100F100000000000030000202578000028000020C9
:100F200025303278000000000D00000000B585B0CB
:100F300000226B460DF8012009E000BF00F00F020F
:100F4000092A01D9373200E030325A540009491ECB
:100F5000C9B2F3D2194602A0FEF724F905B000BDCC
:100F60002573000003490020096848620148FCF726
:100F7000EBBB0000E4010020F0B50546007885B029
:100F8000722810D052280ED09DF8080020F00100E1
:100F90008DF8080029785A290AD240F002008DF80D
:100FA0000800082709E09DF8080040F00100EFE77D
:100FB00020F002008DF8080003276A463946681CB5
:100FC000FFF7D0FC00282DD000980190E8196A4660
:100FD0000121401CFFF7C6FC002823D00098C6B2B0
:100FE0008DF809609DF80800C00718D1082E02D9B5
:100FF0000826002401E000240FE007EB4400284409
:101000006A460221801CFFF7ADFC00280AD001A926
:1010100021440098641C8871E4B2B442EDD301A865
:10102000FFF76CFB05B0F0BD0000000001020304F7
:1010300001020304060708095810010800000020F7
:101040006C000000C4F10008C41001086C0000200E
:101050000C060000D4F100080000000000000000B1
:101060000000000000000000000000000000000080
:101070000000000000000000000000000000000070
:101080000000000000000000000000000000000060
:10109000000300000000000000000000000000004D
:1010A0000000000000000000000000000000000040
:1010B0000000000000000000000000000024F40018
:0410C000000000002C
:040000050800C19995
:00000001FF
