:020000040800F2
:10C0000088060020ADC10008B5C10008B7C100080E
:10C01000B9C10008BBC10008BDC100080000000094
:10C02000000000000000000000000000BFC1000888
:10C03000C1C1000800000000C3C10008F1F0000801
:10C04000C7C10008C7C10008C7C10008C7C10008B0
:10C05000C7C10008C7C10008C7C10008C7C10008A0
:10C06000C7C10008C7C10008C7C10008C7C1000890
:10C07000C7C10008C7C10008C7C10008C7C1000880
:10C08000C7C10008C7C10008C7C100080000000000
:10C09000000000000000000000000000C7C1000810
:10C0A000C7C10008C7C10008C7C10008C7C1000850
:10C0B000E9F10008C7C10008C7C10008C7C10008EE
:10C0C000C7C10008C7C10008C7C10008C7C1000830
:10C0D000C7C10008F5F70008C7C10008000000004C
:10C0E000C7C10008C7C10008C7C1000800000000A0
:10C0F000000000000000000000000000C7C10008B0
:10C1000000000000C7C10008C7C10008C7C100087F
:10C11000000000000000000000000000000000001F
:10C12000C7C10008C7C10008C7C10008C7C10008CF
:10C13000C7C100080000000000000000000000006F
:10C14000000000000000000000000000C7C100085F
:10C15000C7C10008C7C10008C7C10008C7C100089F
:10C16000C7C10008C7C100080000000000000000AF
:10C1700000000000000000000000000000000000BF
:10C1800000000000C7C1000800000000000000001F
:10C19000C7C10008C7C10008DFF80CD000F04AF89A
:10C1A0000048004719080108880600200648804713
:10C1B00006480047FEE7FEE7FEE7FEE7FEE7FEE78C
:10C1C000FEE7FEE7FEE7FEE791F1000899C10008EF
:10C1D0002DE9F05F0546002092469B4688460646BC
:10C1E000814640241BE0284641464746224600F04F
:10C1F00042F853465A46C01A914110D31146184688
:10C20000224600F029F82D1A67EB01084F46224616
:10C210000120002100F020F817EB00094E41201EFC
:10C22000A4F10104DFDC484631462A464346BDE816
:10C23000F09F0000064C074D06E0E06840F0010367
:10C2400094E8070098471034AC42F6D3FFF7A8FFF4
:10C25000FC1801081C190108202A04DB203A00FA06
:10C2600002F1002070479140C2F1200320FA03F34D
:10C27000194390407047202A04DB203A21FA02F04B
:10C280000021704721FA02F3D040C2F12002914010
:10C2900008431946704700002DE9F05FDFF81CA144
:10C2A0000D460446504513D04548844210D04548B9
:10C2B00084420DD0444884420AD04448844207D086
:10C2C0004348844204D04FF4A17142A003F00FFD13
:10C2D000DFF83CE100204FF001094FF00F0B00BFE9
:10C2E00009FA00F105EA01028A4262D12668470094
:10C2F0000323BB409E432660C60804EB8607D7F89D
:10C3000020C046074FEAD6680BFA08F62CEA060C5E
:10C31000C7F820C0A6689E43A66066688E43666024
:10C32000E1689943E16020F003037344D3F808689F
:10C3300081070F0F0BFA07F10E40544502D14FF061
:10C34000000C1DE0DFF878C0644502D14FF0010C0D
:10C3500016E0DFF870C0644502D14FF0020C0FE028
:10C36000DFF864C0644502D14FF0030C08E0DFF849
:10C370005CC0644502D14FF0040C01E04FF0050CA5
:10C380000CFA07FCB44514D1D3F808688E43C3F8FF
:10C39000086820490B6893430B60091D0B689343A1
:10C3A0000B60091D0B6893430B60091D0B689343D9
:10C3B0000B60401C102893D3BDE8F09F00000240A2
:10C3C0000004024000080240000C0240001002403D
:10C3D000001C02402E2E2F447269766572732F5313
:10C3E000544D3332463478785F48414C5F4472692B
:10C3F0007665722F5372632F73746D33326634789F
:10C40000785F68616C5F6770696F2E630000000081
:10C4100000300140003C01402DE9F84F04469048AF
:10C420000D46844212D08F4884420FD08E488442F9
:10C430000CD08E48844209D08D48844206D08D4865
:10C44000844203D0C5218CA003F051FC288800044D
:10C45000000C03D1C62188A003F049FC6868F8B13C
:10C4600001281DD011281BD0022819D0122817D05E
:10C470009049884214D09049884211D08F4988420F
:10C480000ED08F4988420BD08E49884208D08E4901
:10C49000884205D0032803D0C72177A003F027FCEA
:10C4A000A86838B1012805D0022803D0C82172A09D
:10C4B00003F01DFC00264FF0010B00BF0BFA06F045
:10C4C0002F688246074057457ED16868022801D010
:10C4D000122828D12869C8B1092817D0012815D0F9
:10C4E000022813D0042811D005280FD006280DD01B
:10C4F00007280BD0082809D00A2807D00C2805D017
:10C500000F2803D0D9215CA003F0F1FBF00804EB65
:10C510008002106A7107CB0E0F2199408843296968
:10C5200099400143116220687100032202FA01F868
:10C530002A79894602F0030220EA080002FA09F289
:10C54000024322606868012805D0022803D0112820
:10C5500001D012281CD1E86848B1012807D0022870
:10C5600005D0032803D0EC2143A003F0C0FBA06852
:10C57000E96820EA080001FA09F10143A160616855
:10C58000287921EA0A01C0F30010B0400843606036
:10C59000E068A96820EA080001FA09F10143E160B6
:10C5A0006868C00056D54948016841F4804101607F
:10C5B000006826F0030100F48040009044480144E4
:10C5C000D1F80838B00700E044E0020F0F20904097
:10C5D00083432348844201D1002014E0214884424F
:10C5E00001D101200FE02048844201D102200AE05D
:10C5F0001E48844201D1032005E01D48844201D138
:10C60000042000E0052090401843C1F80808314993
:10C6100008686A68B843D20300D5384308602D49DA
:10C62000091D08686A68B843920300D5384308605A
:10C630002849083108686A68B843D20200D53843EF
:10C64000086024490C3108686A68B843920200D532
:10C6500038430860761C102EFFF430AFBDE8F88F29
:10C66000000002400004024000080240000C0240AA
:10C6700000100240001C02402E2E2F447269766585
:10C6800072732F53544D3332463478785F48414C9F
:10C690005F4472697665722F5372632F73746D33C2
:10C6A00032663478785F68616C5F6770696F2E639B
:10C6B00000000000000011100000211000003110E7
:10C6C0000000121000002210000032104438024016
:10C6D00000300140003C014070B50C00054604D11B
:10C6E0004FF4C87103A003F002FB2869204000D07A
:10C6F000012070BD2E2E2F447269766572732F5300
:10C70000544D3332463478785F48414C5F44726907
:10C710007665722F5372632F73746D33326634787B
:10C72000785F68616C5F6770696F2E63000000005E
:10C7300070B515460C00064604D140F2B11108A0B0
:10C7400003F0D5FA45B1012D04D04FF4D97104A0FE
:10C7500003F0CDFAB46170BD2004B06170BD00007B
:10C760002E2E2F447269766572732F53544D3332D7
:10C77000463478785F48414C5F4472697665722F21
:10C780005372632F73746D3332663478785F6861E7
:10C790006C5F6770696F2E630000000001480068DD
:10C7A000704700007000002002480168491C0160C9
:10C7B00070470000700000200B4810B5016841F47C
:10C7C00000710160016841F480610160016841F419
:10C7D00080710160032000F0D5F8002000F006F819
:10C7E00000F015F8002010BD003C024010B50446D2
:10C7F00000F040FA4FF47A71B0FBF1F000F03FFF27
:10C8000000222146501E00F06DF8002010BD10B52A
:10C81000052000F0B7F80022BDE810401146501E78
:10C8200000F060B810B5040003D5E02106A003F0C5
:10C830005EFA04F01F01012088406109890001F1BE
:10C84000E021C1F8800110BD2E2E2F44726976655B
:10C8500072732F53544D3332463478785F48414CCD
:10C860005F4472697665722F5372632F73746D33F0
:10C8700032663478785F68616C5F636F7274657874
:10C880002E63000010B5040003D5D02106A003F0EC
:10C890002EFA04F01F01012088406109890001F18E
:10C8A000E021C1F8000110BD2E2E2F44726976657B
:10C8B00072732F53544D3332463478785F48414C6D
:10C8C0005F4472697665722F5372632F73746D3390
:10C8D00032663478785F68616C5F636F7274657814
:10C8E0002E63000070B515460C460646102A03D389
:10C8F000BC2114A003F0FBF9102C03D3BD2111A01F
:10C9000003F0F5F91E480068C0F30223C3F10702E3
:10C910002046042A00D90422191D072901D2002328
:10C9200000E0DB1E012404FA02F1491E0140994097
:10C930009C40641E2C4021433046BDE8704002F00C
:10C9400015BB00002E2E2F447269766572732F532B
:10C95000544D3332463478785F48414C5F447269B5
:10C960007665722F5372632F73746D333266347829
:10C97000785F68616C5F636F727465782E63000026
:10C980000CED00E010B5044607280BD0062C09D0AA
:10C99000052C07D0042C05D0032C03D0A42108A01B
:10C9A00003F0A5F9154904F0070208684FF6FF03E4
:10C9B000184040EA0220124A1043086010BD0000EF
:10C9C0002E2E2F447269766572732F53544D333275
:10C9D000463478785F48414C5F4472697665722FBF
:10C9E0005372632F73746D3332663478785F686185
:10C9F0006C5F636F727465782E6300000CED00E06D
:10CA00000000FA05BFF34F8F05480168054A01F49D
:10CA1000E06111430160BFF34F8F00BFFDE70000ED
:10CA20000CED00E00400FA052DE9F047044600682B
:10CA30000D46401E0E2804D94FF40E717DA003F060
:10CA400056F995B1012D10D0022D0ED0032D0CD02A
:10CA5000042D0AD0052D08D0062D06D0072D04D0B0
:10CA600040F2392173A003F042F9DFF800A2DAF8AE
:10CA7000000000F00F01E8B28146A94208D2014649
:10CA80008AF80010DAF8000000F00F00A8426ED11A
:10CA90002078774E80071CD5A068A0B1802812D0DE
:10CAA000902810D0A0280ED0B0280CD0C0280AD0D2
:10CAB000D02808D0E02806D0F02804D04FF4147114
:10CAC0005CA003F014F93068A16820F0F00008437E
:10CAD00030602078C0075FD0654F6068083F88B13C
:10CAE000012826D0022827D0032825D040F257213C
:10CAF00050A003F0FCF8606801281AD002281BD06F
:10CB0000032819D038688007002853DA3068616834
:10CB100020F0030008433060FFF740FE07466068DE
:10CB200041F28838012810D002281AD003281FD0DB
:10CB30002EE038688003E7E738688001E4E700BF4B
:10CB4000FFF72CFEC11B41451FD83068C0F38100A0
:10CB50000128F5D120E000BFFFF720FEC11B4145B1
:10CB600013D83068C0F381000228F5D114E021E029
:10CB70003068FFF713FEC01B4045F9D905E000BF40
:10CB8000FFF70CFEC11B414502D90320BDE8F08729
:10CB9000306810F00C0FF3D1DAF80010504601F0B5
:10CBA0000F01A94208D980F80090006800F00F003A
:10CBB000A84201D00120E9E720784FF480554007D2
:10CBC0004FF4A0574FF4C0584FF4E05914D5E06823
:10CBD00060B1A8420AD0B84208D0404506D04845C6
:10CBE00004D040F2B52113A003F081F83068E16869
:10CBF00020F4E050084330602078000715D5206904
:10CC000060B1A8420AD0B84208D0404506D0484595
:10CC100004D04FF42F7107A003F069F83068216940
:10CC200020F4604040EAC10030600020FFF7DEFDE4
:10CC30000020ABE72E2E2F447269766572732F5356
:10CC4000544D3332463478785F48414C5F447269C2
:10CC50007665722F5372632F73746D333266347836
:10CC6000785F68616C5F7263632E6300003C024012
:10CC70000838024010B500F043F808490968F0226E
:10CC800092FAA2F201F0F001B2FA82F2D140044A23
:10CC9000515CC8400349086010BD000008380240DC
:10CCA000EC1801087400002010B5FFF7E3FF0749F6
:10CCB00009684FF4E05292FAA2F201F4E051B2FA9C
:10CCC00082F2D140024A515CC84010BD083802408F
:10CCD000EC18010810B5FFF7CDFF074909684FF4BC
:10CCE000604292FAA2F201F46041B2FA82F2D140BB
:10CCF000024A515CC84010BD08380240EC180108D7
:10CD000030B51948006810F00C01184812D0184CC2
:10CD100004290ED008290DD11349091F0A6802F011
:10CD20003F030A68550247F6C07204D5B4FBF3F01E
:10CD300003E0204630BDB0FBF3F00B6809681340F8
:10CD400092FAA2F2B2FA82F2D34058434FF4403240
:10CD500092FAA2F201F44031B2FA82F2D140491CB7
:10CD60004900B0FBF1F030BD083802400024F40067
:10CD7000C0C62D002DE9F84F044600680F2803D9DE
:10CD8000F621EDA002F0B3FFDFF8E4832078A8F1EC
:10CD9000040BC007ABF1040540D0606838B101282E
:10CDA00005D0052803D0FB21E3A002F0A0FFD8F8AE
:10CDB00000104046C1F38101012908D00068C0F38A
:10CDC000810002280AD1DBF80000400206D528685D
:10CDD000800323D56068002873D01FE0E4492079E0
:10CDE000891F0870606860B1FFF7D8FC064604E050
:10CDF000FFF7D4FC801B64287ED828688003F7D511
:10CE00000CE0FFF7CBFC064605E000BFFFF7C6FCD1
:10CE1000801B6428F0D828688003F7D42078D54E8A
:10CE200080074FF0010A4FF0000754D5E06830B199
:10CE3000012804D040F22D11BFA002F058FF206954
:10CE40001F2804D94FF49771BBA002F050FFD8F807
:10CE50000010404611F00C0F08D00068C0F38100AC
:10CE600002280AD1DBF80000400206D428688007B7
:10CE700015D5E068012824D111E0E068E0B1C6F8DA
:10CE800000A0FFF78BFC814606E000BFFFF786FCA1
:10CE9000A0EB09000228AFD828688007F6D52868DB
:10CEA000F82292FAA2F22169B2FA82F220F0F80096
:10CEB0009140084328600EE03760FFF76FFC814621
:10CEC00006E017E1FFF76AFCA0EB0900022893D8FF
:10CED00028688007F6D42078000732D5DFF89892CA
:10CEE0006069E8B1012806D04FF4B77192A002F052
:10CEF000FEFE6069A0B100E013E1C9F800A0FFF7F1
:10CF00004DFC814606E000BFFFF748FCA0EB09009E
:10CF10000228C0D896486C3000688007F4D510E02D
:10CF2000C9F80070FFF73AFC814605E0FFF736FCD0
:10CF3000A0EB09000228AED88D486C30006880074D
:10CF4000F4D42078400753D5A06840B1012806D01A
:10CF5000052804D04FF4CC7177A002F0C8FE8448B5
:10CF60003830016841F080510160006800F0805065
:10CF700000908248016841F480710160FFF70EFC67
:10CF8000814605E0FFF70AFCA0EB090002289ED8C5
:10CF90007A480068C005F5D5DFF8D491207A09F108
:10CFA000680989F80000A06888B1FFF7F7FB0090D6
:10CFB00008E000BFFFF7F2FB0099411A41F2883008
:10CFC000814284D8D9F800008007F3D510E0FFF73C
:10CFD000E5FB009008E000BFFFF7E0FB0099411A75
:10CFE00041F28830814294D8D9F800008007F3D408
:10CFF000A06900287DD0012809D0022807D040F27E
:10D00000CD114DA002F073FEA0690028F2D0D8F82F
:10D010000000C0F3810002286CD0A069022804D06F
:10D020003766FFF7BBFB04467EE0E06938B1B0F538
:10D03000800F04D04FF4EB713FA002F058FE206A3D
:10D040003F2804D940F2D7113BA002F050FE606A9D
:10D05000C038F02804D94FF4EC7137A002F047FE35
:10D06000A06A02280AD0042808D0062806D008287A
:10D0700004D040F2D91130A002F039FEE06A001F5E
:10D080000B2804D94FF4ED712BA002F030FE376667
:10D09000FFF784FB074604E0FFF780FBC01B022874
:10D0A0003FD828688001F7D4D4E90701084347F640
:10D0B000C07292FAA2F2616AB2FA82F29140A26A56
:10D0C0004FF0FF3303EB52024FF4403393FAA3F3D4
:10D0D000B3FA83F39A40114308434FF0706292FA17
:10D0E000A2F2E16AB2FA82F291400843CBF8000062
:10D0F00001E01CE01DE0C6F860A0FFF74FFB04460E
:10D1000005E000BFFFF74AFB001B022809D828688A
:10D110008001F7D50BE000BFFFF740FB001B0228A2
:10D1200002D90320BDE8F88F28688001F4D40020DC
:10D13000F8E70120F6E700002E2E2F44726976658D
:10D1400072732F53544D3332463478785F48414CD4
:10D150005F4472697665722F5372632F73746D33F7
:10D1600032663478785F68616C5F7263632E630047
:10D170000838024000004742800E474200700040DD
:10D1800070B504006CD06C492068884210D06B499F
:10D1900088420DD06A4988420AD06A49884207D03D
:10D1A0006949884204D04FF4867168A002F09FFD5F
:10D1B000606838B1B0F5827F04D040F20D1163A0F1
:10D1C00002F095FDA06850B1B0F5806F07D0B0F5C2
:10D1D000004F04D04FF487715CA002F088FDE06836
:10D1E000B0F5006F05D020B140F20F1157A002F04A
:10D1F0007EFDA069B0F5007F08D038B1B0F5802F72
:10D2000004D04FF4887151A002F071FDE06990B133
:10D21000082810D010280ED018280CD020280AD0AA
:10D22000282808D0302806D0382804D040F2111120
:10D2300046A002F05CFD206A30B1802804D04FF493
:10D24000897142A002F053FD606A58B110281BD0CA
:10D2500040F213113DA002F04AFD606A10B113E0E4
:10D26000012070BD206930B1022804D04FF48B71C9
:10D2700036A002F03CFD606930B1012804D040F2D4
:10D28000171132A002F033FDA06A4FF40056A0B18E
:10D29000B04207D04FF48D712CA002F028FDA06A97
:10D2A000B0420AD1E06A4FF6FE71401E884204D9AE
:10D2B00040F21D1125A002F01AFD94F8510000253E
:10D2C00020B984F85050204600F05CF8022084F821
:10D2D00051002068016821F040010160D4E901019A
:10D2E0000843D4E903121143084361690843218BC1
:10D2F00001F400710843E1690843216A0843A16A07
:10D30000084321680860A069042101EA1040616AAD
:10D31000084321684860A06AB04202D12168E06AEF
:10D3200008612068C16921F40061C161656501205F
:10D3300084F85100002070BD0030014000380040EA
:10D34000003C004000340140005001402E2E2F448C
:10D350007269766572732F53544D33324634787840
:10D360005F48414C5F4472697665722F5372632F38
:10D3700073746D3332663478785F68616C5F737094
:10D38000692E630000B500680E4987B0884216D147
:10D390000D480021026842F480520260006800F4E7
:10D3A00080500590E02000900220CDE9010103208B
:10D3B00003900520049069460448FFF72DF807B054
:10D3C00000BD00000030014044380240000002402F
:10D3D0002DE9F84F4FF0000B0A9E984691468A4679
:10D3E0000446ADF800B080685D4620B14FF44A7144
:10D3F0007BA002F07CFC94F8500001280ED00120A4
:10D4000084F85000FFF7CAF9074694F85100012844
:10D410000FD06068B0F5827F09D102E00220BDE83C
:10D42000F88FA06818B994F85100042801D002259B
:10D43000CFE0BAF1000F0AD0B9F1000F07D0B8F170
:10D44000000F04D094F85100012802D004E0012517
:10D45000BFE0052084F85100C4F854B0C4F83890F7
:10D46000A4F83E80A4F83C80C4F830A0A4F836802C
:10D47000A4F83480C4F840B0C4F844B0A06A4FF4B3
:10D48000005840450AD1206801684DF6FF721140EE
:10D4900001602068016841F4005101602068016862
:10D4A000490603D4016841F040010160E068B0F52D
:10D4B000006F29D05AE0A0B120688168890710D593
:10D4C0003AF8021BC160E08E401E0004000CE086AA
:10D4D00007D1A06A404504D12068016841F4805119
:10D4E0000160E08F48B120688168C90705D0C06835
:10D4F00029F8020BE08F401EE087701C04D0FFF774
:10D500004DF9C01BB0422FD2E08E0028D3D1E18F5D
:10D510000029D0D130E0A0B120688168890710D5FA
:10D520001AF8011B0173E08E401E0004000CE08617
:10D5300007D1A06A404504D12068016841F48051B8
:10D540000160E08F48B120688168C90705D0C068D4
:10D5500009F8010BE08F401EE087701C06D0FFF732
:10D560001DF9C01BB04201D3032532E0E08E002834
:10D57000D1D1E18F0029CED1A06A404512D101223C
:10D58000334611462046009701F06CFD20B1606DD6
:10D5900040F002006065E7E72068C068ADF8000071
:10D5A000BDF8000020688168C90607D5616D41F0AB
:10D5B000020161654FF6EF71816001253A463146FF
:10D5C000204601F03FFD20B1606D40F02000606515
:10D5D0003DE7012084F8510084F850B028461EE74A
:10D5E0002E2E2F447269766572732F53544D333249
:10D5F000463478785F48414C5F4472697665722F93
:10D600005372632F73746D3332663478785F686158
:10D610006C5F7370692E630010B54FF0E02404282E
:10D6200009D020B140F2B31105A002F060FB2069DF
:10D6300020F0040002E0206940F00400206110BDE9
:10D640002E2E2F447269766572732F53544D3332E8
:10D65000463478785F48414C5F4472697665722F32
:10D660005372632F73746D3332663478785F6861F8
:10D670006C5F636F727465782E630000704710B53D
:10D68000401EB0F1807F01D3012010BD4FF0E02497
:10D6900060610F21601701F069FC0020A061072084
:10D6A0002061002010BD10B5FFF7E8FF10BD7047E6
:10D6B0007047000070B50D46044600682D49884249
:10D6C00013D0B0F1804F10D02B4988420DD02B4998
:10D6D00088420AD02A49884207D02A49884204D081
:10D6E0004FF4CB6128A002F002FB286890B110280B
:10D6F00010D020280ED030280CD040280AD0502836
:10D7000008D0602806D0702804D040F259611EA0CD
:10D7100002F0EDFA6868802805D020B140F25A6125
:10D7200019A002F0E4FA94F8380001281FD0012073
:10D7300084F83800022184F8391021684A6822F000
:10D7400070024A6021684A682B681A434A6021685F
:10D750008A6822F080028A6021688A686B681A43AE
:10D760008A6084F83900002084F8380070BD0220F7
:10D7700070BD0000000001400004004000080040AF
:10D78000000C0040004001402E2E2F447269766547
:10D7900072732F53544D3332463478785F48414C7E
:10D7A0005F4472697665722F5372632F73746D33A1
:10D7B00032663478785F68616C5F74696D5F657834
:10D7C0002E63000010B504003AD027492068884233
:10D7D00018D0B0F1804F15D02449884212D0244986
:10D7E00088420FD0234988420CD02349884209D06F
:10D7F0002249884206D02249884203D0D92121A05B
:10D8000002F075FAA06858B1102809D0202807D076
:10D81000402805D0602803D0DA211AA002F067FA68
:10D82000206948B1B0F5807F06D0B0F5007F03D005
:10D83000DB2114A002F05BFA94F8390010B107E084
:10D84000012010BD002084F83800204600F036F892
:10D85000022084F83900211D206801F0CBFC012052
:10D8600084F83900002010BD000001400004004091
:10D8700000080040000C004000400140004401400E
:10D88000004801402E2E2F447269766572732F5323
:10D89000544D3332463478785F48414C5F44726966
:10D8A0007665722F5372632F73746D3332663478DA
:10D8B000785F68616C5F74696D2E630008B50168FC
:10D8C0001648B1F1804F0AD0154A914219D101682A
:10D8D00041F002010160006800F002001BE00168F5
:10D8E00041F0010101600068002200F00100009099
:10D8F00011461C20FEF7F6FFBDE808401C20FEF78D
:10D90000C1BF084A914207D1016841F00801016096
:10D91000006800F00800009008BD00004038024098
:10D9200000040040000C004010B504460168154892
:10D93000814219D0B1F1804F16D01348814213D0E3
:10D940001248814210D0124881420DD011488142C4
:10D950000AD01148814207D01048814204D04FF4C8
:10D960009A710FA002F0C3F9022084F839002068F0
:10D97000016841F001010160012084F839000020B4
:10D9800010BD0000000001400004004000080040FD
:10D99000000C0040004001400044014000480140AC
:10D9A0002E2E2F447269766572732F53544D333285
:10D9B000463478785F48414C5F4472697665722FCF
:10D9C0005372632F73746D3332663478785F686195
:10D9D0006C5F74696D2E630010B5044601681448CD
:10D9E000814219D0B1F1804F16D01248814213D034
:10D9F0001148814210D0114881420DD01048814217
:10DA00000AD01048814207D00F48814204D04FF419
:10DA1000B2710EA002F06BF92068C16841F00101FB
:10DA2000C1602068016841F001010160002010BD63
:10DA3000000001400004004000080040000C0040CD
:10DA40000040014000440140004801402E2E2F4478
:10DA50007269766572732F53544D33324634787839
:10DA60005F48414C5F4472697665722F5372632F31
:10DA700073746D3332663478785F68616C5F746993
:10DA80006D2E630010B5044601681948814219D013
:10DA9000B1F1804F16D01748814213D01648814209
:10DAA00010D0164881420DD0154881420AD0154841
:10DAB000814207D01448814204D04FF4A67113A0CC
:10DAC00002F015F9022084F839002068016A41F259
:10DAD0001112114207D1016A9210114203D101685B
:10DAE00021F001010160012084F83900002010BDFF
:10DAF000000001400004004000080040000C00400D
:10DB00000040014000440140004801402E2E2F44B7
:10DB10007269766572732F53544D33324634787878
:10DB20005F48414C5F4472697665722F5372632F70
:10DB300073746D3332663478785F68616C5F7469D2
:10DB40006D2E630010B5044601681948814219D052
:10DB5000B1F1804F16D01748814213D01648814248
:10DB600010D0164881420DD0154881420AD0154880
:10DB7000814207D01448814204D040F2791113A0A9
:10DB800002F0B5F82068C16821F00101C160206889
:10DB9000016A41F21112114207D1016A9210114239
:10DBA00003D1016821F001010160002010BD0000D7
:10DBB000000001400004004000080040000C00404C
:10DBC0000040014000440140004801402E2E2F44F7
:10DBD0007269766572732F53544D333246347878B8
:10DBE0005F48414C5F4472697665722F5372632FB0
:10DBF00073746D3332663478785F68616C5F746912
:10DC00006D2E63002DE9F05F044690F838000D4654
:10DC1000012841D0012084F83800022084F839001E
:10DC200028684FF4805B584516D0B0F5005F13D0DC
:10DC300090B1102810D020280ED030280CD04028C9
:10DC40000AD0502808D0602806D0702804D040F6AA
:10DC50006D71E3A002F04BF82068816821F0770134
:10DC600021F47F4181602F68EB48EC49EC4AED4B91
:10DC7000ED4EDFF8B883DFF8B8A34FF0804C4FF4D7
:10DC80000049502F74D00FDC202F72D007DC002FFA
:10DC900070D0102F50D163E10220BDE8F09F302FEB
:10DCA00069D0402FF6D113E1602F7DD0702F63D063
:10DCB0005F4542D04FF400584745EBD12668864275
:10DCC0000CD066450AD08E4208D0964206D09E42BD
:10DCD00004D040F69A71C2A002F009F8686848457D
:10DCE00009D040B1022806D00A2804D040F69C7121
:10DCF000BBA001F0FCFFA86858B1584509D04045C9
:10DD000007D0B0F5405F04D040F69D71B4A001F09B
:10DD1000EEFFE8680F2804D940F69E71B0A001F02C
:10DD2000E6FFD5E90121EB68206801F0ABFA206835
:10DD3000816841F480418160C3E02568854212D04A
:10DD4000654510D08D420ED095420CD09D420AD030
:10DD5000B54208D0454506D0554504D040F6797106
:10DD60009FA001F0C4FF2068816821F00701E2E76D
:10DD700044E00AE1DFE01DE1266886420CD06645FA
:10DD80000AD08E4208D0964206D09E4204D040F679
:10DD9000827193A001F0ABFF686848450BD050B189
:10DDA000022808D00A2800E05BE004D040F6847125
:10DDB0008BA001F09CFFA86860B158450AD0B0F56F
:10DDC000005F07D0B0F5405F04D040F6857184A0B5
:10DDD00001F08DFFE8680F2804D940F6867180A015
:10DDE00001F085FFD5E90121EB68206801F04AFACE
:10DDF0002168886840F07700886062E02768874281
:10DE000012D0674510D08F420ED097420CD09F425F
:10DE10000AD0B74208D0474506D0574504D040F64F
:10DE2000AC716FA001F063FF6868484509D040B14C
:10DE3000022806D00A2804D040F6AF7168A001F08D
:10DE400056FFE8680F2804D94FF47B6164A001F005
:10DE50004EFFEA686968206801F026FA50212068C0
:10DE60002DE0276887420ED067450CD08F420AD03C
:10DE7000974208D09F4206D0B74204D040F6BA710C
:10DE800057A001F034FF6868484509D040B1022826
:10DE900006D00A2804D040F6BD7151A001F027FF3A
:10DEA000E8680F2804D940F6BE714DA001F01FFFAD
:10DEB000EA686968206801F008FA6021206801F0CA
:10DEC000EBF9012084F83900002084F83800E4E6FA
:10DED0002768874212D0674510D08F420ED09742F4
:10DEE0000CD09F420AD0B74208D0474506D05745CC
:10DEF00004D040F6C8713AA001F0F9FE68684845C0
:10DF000009D040B1022806D00A2804D040F6CB71CF
:10DF100033A001F0ECFEE8680F2804D940F6CC717C
:10DF20002FA001F0E4FEEA686968206801F0BCF9FE
:10DF300040212068C3E7256885420ED065450CD096
:10DF40008D420AD0954208D09D4206D0B54204D0F9
:10DF500040F6D67122A001F0CAFE00212068AEE78B
:10DF6000256885420ED065450CD08D420AD0954279
:10DF700008D09D4206D0B54204D040F6DC7118A00E
:10DF800001F0B5FE1021206899E7256885420ED082
:10DF900065450CD08D420AD0954208D09D4206D0EE
:10DFA000B54204D040F6E2710DA001F0A0FE2021A0
:10DFB000206884E7256885420ED065450CD08D42E7
:10DFC0000AD0954208D09D4206D0B54204D040F612
:10DFD000E87103A001F08BFE302120686FE700009C
:10DFE0002E2E2F447269766572732F53544D33323F
:10DFF000463478785F48414C5F4472697665722F89
:10E000005372632F73746D3332663478785F68614E
:10E010006C5F74696D2E63000000014000040040D5
:10E0200000080040000C0040004001400044014056
:10E0300000480140704770B50446006801694FF020
:10E040000005C943890715D4C168C943890711D49C
:10E05000E91E016101202076206880698007204642
:10E0600002D0FFF7E7FF04E000F098F8204600F048
:10E0700096F8257620680169C943490717D4C16815
:10E08000C943490713D46FF00401016102202076CF
:10E090002068806910F4407F204602D0FFF7CAFF55
:10E0A00004E000F07BF8204600F079F8257620683F
:10E0B0000169C943090716D4C168C943090712D4C5
:10E0C0006FF008010161042020762068C069800794
:10E0D000204602D0FFF7AEFF04E000F05FF82046D4
:10E0E00000F05DF8257620680169C943C90617D498
:10E0F000C168C943C90613D46FF01001016108203B
:10E1000020762068C06910F4407F204602D0FFF7D7
:10E1100091FF04E000F042F8204600F040F8257638
:10E1200020680169C943C90708D1C168C943C90743
:10E1300004D1891E0161204600F032F8206801698F
:10E14000C943090609D4C168C943090605D46FF05B
:10E15000800101612046FFF7AAFA20680169C943DE
:10E16000490609D4C168C943490605D46FF0400186
:10E170000161204600F08EF820680169C9438906D4
:10E180000BD4C168C943890607D46FF0200101612F
:10E190002046BDE87040FFF78BBA70BD70477047EE
:10E1A0002DE9F0410068B0F1804F49D12E484EF67C
:10E1B00060220188491CB1FBF2F302FB13110180BC
:10E1C0002A48018811B10188491E0180284900248C
:10E1D000086890B1401E086064280EDA254A13785A
:10E1E00013B1254B1D780DB130B106E04FF47A60C4
:10E1F00008600120187000E014702048016809B11F
:10E20000491E01601E4FDFF87C800226397849B133
:10E210001D4D2868401C2860012913D0322801DBDD
:10E220003C702C60194F3978002909D0184D2868A6
:10E23000401C286001290ED0322801DB3C702C6084
:10E24000BDE8F0813228EDDB012202214046FEF7D5
:10E250006FFA3E70E5E73228F2DB012211464046B4
:10E26000FEF766FA3E70EAE74C00002056000020F8
:10E270005C00002061000020600000206800002099
:10E280004100002000000240480000204200002021
:10E29000440000207047000010B504001DD0104954
:10E2A000206888420AD00F49884207D00E49884228
:10E2B00004D040F2F3110DA001F019FD242084F8E0
:10E2C0003900204600F038F90020E06384F8390076
:10E2D00084F83A0084F8380010BD012010BD000019
:10E2E0000010014000440040001401402E2E2F4435
:10E2F0007269766572732F53544D33324634787891
:10E300005F48414C5F4472697665722F5372632F88
:10E3100073746D3332663478785F68616C5F7561F1
:10E3200072742E6300000000704738B50446006820
:10E330000168C26811F0010F02F4807207D032B197
:10E34000016841680091E16B41F00101E1630168FE
:10E350004269C1F3400102F0010239B132B10168F2
:10E3600041680091E16B41F00401E1630168426999
:10E37000C1F3800102F0010239B132B10168416894
:10E380000091E16B41F00201E16301684269C1F370
:10E39000C00102F0010239B132B101684168009157
:10E3A000E16B41F00801E1630168C068C1F340110D
:10E3B00000F0200019B110B1204600F0B1FF216833
:10E3C0000868C968C0F3C01001F0800118B111B12C
:10E3D000204601F093F921680868CA68C0F38010EC
:10E3E00002F04002202548B142B1CA68204622F01E
:10E3F0004002CA6084F8395000F0B3F9E06B00289D
:10E4000006D084F8395084F83A502046FFF78CFF44
:10E4100038BD000070B504001ED03549A0698D15C7
:10E420000028344A344B206818D0884209D09042E2
:10E4300007D0984205D0FB2130A001F058FCA0691C
:10E44000B0B1A069A84213D0B0F5007F10D0B0F5EC
:10E45000407F0DD0FC2108E0012070BD884207D02C
:10E46000904205D0984203D0294624A001F03FFCF9
:10E47000A06838B1B0F5805F04D04FF481711FA05F
:10E4800001F035FCE06938B1B0F5004F04D040F23E
:10E4900003111AA001F02BFC94F83900002520B9D3
:10E4A00084F83850204600F073F8242084F83900AE
:10E4B0002068C16821F40051C160204600F07CFF53
:10E4C0002068016921F4904101612068416921F0CF
:10E4D0002A0141612068C16841F40051C160E563CF
:10E4E000202084F8390084F83A00002070BD000034
:10E4F0000010014000440040001401402E2E2F4423
:10E500007269766572732F53544D3332463478787E
:10E510005F48414C5F4472697665722F5372632F76
:10E5200073746D3332663478785F68616C5F7561DF
:10E5300072742E630000000010B5114A0168114882
:10E5400091420DD110490A6822F010020A604FF47E
:10E55000C061FDF7A1FEBDE810402520FEF762B9BD
:10E560000A4A91420AD10849091F0A6822F4003276
:10E570000A60BDE810400C21FDF78EBE10BD000002
:10E5800000100140000002404438024000440040B6
:10E5900070B51B4E01680222012303240725194888
:10E5A00086B0B14218D118490E6846F010060E60C8
:10E5B000096801F01001059161028DE83E0069468D
:10E5C000FDF72AFF012200212520FEF78BF92520E7
:10E5D000FEF758F906B070BD0C4EB142FAD10A49A7
:10E5E000091F0E6846F400360E60096801F4003118
:10E5F00005910C218DE83E006946FDF70DFFE9E726
:10E600000010014000000240443802400044004035
:10E6100090F83A30202B25D111B30AB390F8383056
:10E62000012B1FD0012380F8383081628285C2859A
:10E630000021C163222280F83A200268D36843F4A3
:10E640008073D3600268536943F00103536180F81B
:10E6500038100068C16841F02001C1600020704797
:10E66000012070470220704770B50F48104C0F4AC8
:10E67000017820780D290FD00A2904D0115463287D
:10E6800001D2401C207001F0D7FCBDE8704001228F
:10E6900005490848FFF7BCBF00251554034802F0A0
:10E6A0007BFD2570EFE7000008000020D40000206B
:10E6B0003F000020380100202DE9F041044690F889
:10E6C000390098460D46202849D105B3FAB194F88F
:10E6D0003800012843D0012084F838000026E66382
:10E6E000212084F83900A284E2844FF48057E08C22
:10E6F0004346401EE084A0684FF00002B8424FF04D
:10E700008001204611D101F02AF8F8B902E0012079
:10E71000BDE8F08128882168C0F3080048602069BE
:10E7200008B16D1C08E0AD1C06E001F018F868B9EE
:10E73000216815F8010B4860E08C0028D7D14346CA
:10E7400000224021204601F00AF808B10320DFE74B
:10E75000202084F8390084F838600020D8E70220AF
:10E76000D6E770472DE9F84F8146002500F05EFAA4
:10E77000704C204601F04EFC204601F04BFC204638
:10E7800001F048FC4FF000086B4EDFF8B0B1DFF845
:10E79000B0A16C4CC5E06D1CEDB2332000F0D4F894
:10E7A0004FF47A706080B9F80000A0B100F0CAFBA5
:10E7B000DAF8000041680168C943890602D561881A
:10E7C0000029F8D16188F9B14068C0B2552857D006
:10E7D0007F20BDE8F88F08213046FDF77DFF012836
:10E7E00002D160880028F6D1608868B1DBF800109B
:10E7F000C1F824805148FFF797F8002708213046D8
:10E80000FDF76AFF20B106E0207885427BD37CE0EB
:10E8100060880028F2D1608850B108213046FDF7A9
:10E820005BFF012802D160880028F6D1608810B90A
:10E830002078854269D27F1C042FDFDB0821304617
:10E84000FDF74AFF10B960880028F7D160880028DA
:10E85000DAD0DBF80000406A87B23848FFF712F9D7
:10E86000B7F5617F02D94FF4165101E042F6A001DD
:10E87000A9F8001088B200F065FBDAF800004068E3
:10E880004FF4FA706080DAF800000268D243920612
:10E8900002D56288002AF8D16288002AB4D0426882
:10E8A000284F3F1D3A700268D243920602D5628813
:10E8B000002AF8D16288002AA6D040684FF6FF737C
:10E8C000C0B27870C0F1FF008DF8000001226946E7
:10E8D0001B48FFF7F1FEDAF800000168C94389061A
:10E8E00002D561880029F8D1618800298CD0406860
:10E8F0007978C0B2C1F1FF02824208D02078854207
:10E900000FD38F2065E70CE0FFE7FF2061E7387841
:10E91000082801D1082908D02078854201D3102089
:10E9200057E720788542FFF436AFA4F80280002034
:10E930004FE7000020A1070000000240F401002082
:10E9400078010020540000202DE9F041064600F037
:10E9500057FF184801F05EFB002000F0C9FC0020C2
:10E9600000F0D2FC144D284601F054FB002401278E
:10E970004FEA050807FA04F5354001D0012000E010
:10E98000002000F0B5FC0DB1012000E0002000F0F7
:10E99000BBFC404601F03EFB641C082CEADB012076
:10E9A00000F0A6FC012000F0AFFC4046BDE8F041BD
:10E9B00001F030BBE0930400400D030070B586B059
:10E9C00006466A46022102F0BFFB002839D0002427
:10E9D0001D4D0BE006EB440004AA0221801C02F04E
:10E9E000B3FB00282DD004982855641C009884425D
:10E9F000F0D3401E41B2144801F0B0FB00996A18F0
:10EA000002F8010C1148017049B20F4801F0D6FC20
:10EA100001A801F009FC050012D0280610D46A21D3
:10EA20000BA000F013FF002401AE04E0315D09A04B
:10EA300000F00CFF641CAC42F8DB08A000F006FFFD
:10EA4000012006B070BD00006C0400206C000020A6
:10EA50002563000025303278000000000D00000022
:10EA60007CB506466A46022102F06EFB002824D0DF
:10EA70000024124D0CE000BF06EB440001AA022165
:10EA8000801C02F061FB002817D001982855641CF7
:10EA900000988442F0D3401E41B2084801F05EFB6A
:10EAA00000996A1802F8010C0548017049B2034840
:10EAB00001F026FE012800D000207CBD6C0400205F
:10EAC0006C0000207CB506466A46022102F03CFB41
:10EAD00000281ED000240F4D0CE000BF06EB4400C0
:10EAE00001AA0221801C02F02FFB002811D00198FE
:10EAF0002855641C00988442F0D3401EC1B20548DA
:10EB000001F064F900996A1802F8010C024881705A
:10EB100001207CBD6C0300204E000020F8B50025CC
:10EB200000F084F83E4C204601F074FA204601F0D3
:10EB300071FA204601F06EFA3B4F3A4E3C1F69E0F5
:10EB40006D1CEDB23320FFF7FFFE4FF47A7060804A
:10EB500042F6A00000F0F6F9306841680168C94348
:10EB6000890602D561880029F8D1618829B14168F8
:10EB7000C9B2552906D07F20F8BD2078854249D3F7
:10EB8000FF20F8BD4FF4FA7161800168C94389061E
:10EB900002D561880029F8D161880029EDD041684B
:10EBA00039700168C943890602D561880029F8D106
:10EBB00061880029E1D040684FF6FF73C0B27870D9
:10EBC000C0F1FF008DF80000012269461548FFF7EB
:10EBD00073FD30680168C943890602D56188002940
:10EBE000F8D161880029C8D04068C1B27878C0F1F6
:10EBF000FF028A4204D0207885420BD38F20F8BDD3
:10EC00003978E92901D18F2807D02078854201D3AE
:10EC10001020F8BD2078854292D300206080F8BD96
:10EC200020A10700780100205800002010B500F056
:10EC3000E7FD002000F05CFB002000F065FB46F2E1
:10EC4000A814204601F0E6F9012000F051FB012054
:10EC500000F05AFB42F6A00000F074F92046BDE82F
:10EC6000104001F0D7B9000070B50C4B1968496825
:10EC70000B4A0021642454801D682E68F643B606B2
:10EC800002D55688002EF7D156882EB16D684554AE
:10EC90005480491CFF29EFDDC8B270BD7801002007
:10ECA000540000208AB201464FF6FF730148FFF777
:10ECB00003BD0000780100202DE9F041514886B0E5
:10ECC0000026016841F004010160016801F00401BF
:10ECD0000591016841F080010160016801F0800147
:10ECE0000591016841F001010160016801F0010135
:10ECF0000591016841F0020101600068032500F000
:10ED0000020005904FF440408DE861003E4F694697
:10ED10003846FDF781FB4FF40050CDE90006012491
:10ED2000694602943846FDF777FB4FF419408DE8A9
:10ED30006100DFF8D88069464046FDF76DFB10277B
:10ED4000CDE9007469464046CDE90245FDF764FB14
:10ED5000012210214046FDF7EBFCCDE90054CDE93E
:10ED6000026569464046FDF757FB0420CDE90004E3
:10ED700069464046CDE90245FDF74EFB01220421DC
:10ED80004046FDF7D5FC0820CDE90006694602940F
:10ED90004046FDF741FB4FF2EF208DE86100DFF8C0
:10EDA000708069464046FDF737FBA602CDE9006456
:10EDB00069464046CDE90245FDF72EFB002231466B
:10EDC0004046FDF7B5FC2602CDE9006469464046A1
:10EDD000CDE90245FDF720FB002231464046FDF714
:10EDE000A7FCCDE9007469464046CDE90245FDF730
:10EDF00013FB002210214046FDF79AFC06B0BDE847
:10EE0000F08100003038024000080240000002405B
:10EE1000000402400C480B494FF4007201604FF4AB
:10EE20008271416000218160C1600161C0E9051209
:10EE30002822C0E90721416281620A21C162FEF7EE
:10EE40009FB90000003001407C00002010B50F4841
:10EE500086B04FF0804101604FF4FA710024C0E9A0
:10EE60000114C821C0E90314FEF7ACFC4FF4805034
:10EE7000009069460548FEF7C5FE049404A90348BE
:10EE80000594FEF717FC06B010BD0000B801002085
:10EE900010B50F4886B00D49016064210024C0E917
:10EEA00001144FF6FF71C0E90314FEF78BFC4FF419
:10EEB0008050009069460648FEF7A4FE049404A919
:10EEC00003480594FEF7F6FB06B010BD00040040B1
:10EED000F401002010B50F4886B00D49016064218F
:10EEE0000024C0E901140C49C0E90314FEF76AFCD0
:10EEF0004FF48050009069460648FEF783FE049464
:10EF000004A904480594FEF7D5FB06B010BD000027
:10EF1000000C00403002002040420F000848074922
:10EF200001604FF4E1314160002181600C22C16039
:10EF3000C0E904128161C161FFF76CBA00100140A1
:10EF4000380100200849074AC1E9002000208860F4
:10EF50000C22C860C1E904028861C8610846FFF755
:10EF600059BA000000440040780100200907090E4A
:10EF7000002806DA00F00F0000F1E02080F8141DF0
:10EF8000704700F1E02080F80014704770B5154814
:10EF90000024047014480460144804701448047079
:10EFA0001448047014480470144804601448047031
:10EFB000144804701448047014480470144D154922
:10EFC000154A164B00202C540C5414541C54401C4D
:10EFD0000828F8DB1248FEF755FD11480068446226
:10EFE00070BD0000010000200C0000200300002084
:10EFF0000600002002000020050000201000002074
:10F0000007000020090000200A0000200400002062
:10F010002F0000201F0000202700002037000020C4
:10F020003002002001B582B04FF6FF70009001233E
:10F0300001AA02A90248FEF7CBF99DF804000EBD13
:10F040007C00002038B50B46009204460022802147
:10F0500000F008F8002804D0606D40F020006065E2
:10F06000032038BD2DE9F0411D4616460F460446E3
:10F07000DDF8188035E0681C33D02DB1FDF78EFB2C
:10F08000A0EB0800A8422CD32068416821F0E001E1
:10F0900041606068B0F5827F0BD1A068B0F5004F89
:10F0A00002D0B0F5806F04D12068016821F04001E2
:10F0B0000160A06AB0F5005F0AD1206801684DF6D2
:10F0C000FF72114001602068016841F40051016045
:10F0D000012084F85100002084F850000320BDE88E
:10F0E000F081206880683840B042C4D10020F6E743
:10F0F00010B5FDF759FBBDE81040FEF7D4BA00008B
:10F1000030B5214893B00025016841F0805101607D
:10F11000006800F0805011901C48016841F44041A3
:10F1200001600068022400F440401190012000902A
:10F13000052001906005CDE9064003200890C82015
:10F14000CDE9090404200B906846FDF713FE0CA9D5
:10F150000F2081E83100E002CDE90F0503210CA862
:10F16000FDF762FCFDF786FD4FF47A71B0FBF1F01C
:10F17000FEF785FA0420FEF74FFA00221146501ED2
:10F18000FDF7B0FB13B030BD4038024000700040C6
:10F190001048016841F4700101600F48016841F0B6
:10F1A000010101600C4A00210832116002680B4B1A
:10F1B0001A400260031D0A4A1A60026822F4802283
:10F1C000026005480C300160024906488039086039
:10F1D0007047000088ED00E000380240FFFFF6FEB7
:10F1E0001030002400C000080148FEF724BF0000D2
:10F1F000B8010020F0B502681B4B1C4C9F031C4D4E
:10F200001C4E984207D0B84205D0A04203D0A84275
:10F2100001D0B04204D122F0700C4A6842EA0C02DC
:10F22000984210D0B8420ED0A0420CD0A8420AD0CA
:10F23000B04208D0104CA04205D0104CA04202D0E1
:10F240000F4CA04203D122F44074CA6822430260EA
:10F250008A68C2620A688262984201D109690163C0
:10F2600001214161F0BD00000000014000040040A8
:10F2700000080040000C00400040014000440140F4
:10F280000048014010B5846842EA032224F47F4418
:10F290000A432243826010BD826822F070020A4352
:10F2A00042F007018160704710B5036A046A24F0D8
:10F2B00001040462846924F0F00444EA021423F097
:10F2C0000A020A438461026210BD10B5036A23F08A
:10F2D000100303628369046A23F4704343EA023231
:10F2E00024F0A00343EA01118261016210BD000015
:10F2F000044B20B1012204211846FDF719BA00225F
:10F30000F9E7000000000240044B4FF4806118B19F
:10F3100000221846FDF70CBA0122FAE70004024069
:10F3200010B590F83A10222901D0022010BD816852
:10F33000B1F5805F11D00169002901681FD04968CB
:10F3400001F07F03816A4A1C82620B70C18D491EE5
:10F350000904090CC18518D02BE00269816A002AD2
:10F360000268526805D0D2B20A80816A491C816263
:10F37000ECE7C2F308020A80816A891CF7E74A6851
:10F38000816A4B1C83620A70E0E70168CA6822F058
:10F390002002CA600168CA6822F48072CA600168EB
:10F3A0004A6922F001024A61202180F83A10FFF7F1
:10F3B0005BF9002010BD00002DE9F04104464068D3
:10F3C000BC49884204D340F2DD61BBA000F08FFC51
:10F3D000E06838B1B0F5005F04D040F2DE61B6A05D
:10F3E00000F085FC206950B1B0F5806F07D0B0F512
:10F3F000C06F04D040F2DF61AFA000F078FC60691C
:10F400004FF6F371084200D120B94FF4DC61AAA095
:10F4100000F06DFC2268106920F44051E068084358
:10F4200010612268D06849F20C6188432369A168A1
:10F43000E569194363692B4319430143D16022688D
:10F44000506920F44071A06908435061E269642565
:10F45000B2F5004FA748A84922684FF032083FD0C4
:10F460008A4201D082427CD1FDF734FC00EBC0011E
:10F4700001EB001061688900B0FBF1F6FDF72AFC92
:10F4800000EBC00101EB001061688900B0FBF1F0F6
:10F49000B0FBF5F06FF01801484306EB800108EB74
:10F4A0000110B0FBF5F000F0F006FDF713FC00EBE7
:10F4B000C00101EB001061688900B0FBF1F0B0FB06
:10F4C000F5F006EB0016FDF705FC00EBC00101EBC3
:10F4D000001061688900B0FBF1F7FDF7FBFBD2E09B
:10F4E0008A4201D082423DD1FDF7F4FB00EBC0011E
:10F4F00001EB001061684900B0FBF1F0B0FBF5F0E2
:10F500000601FDF7E7FB00EBC00101EB00106168AD
:10F510004900B0FBF1F7FDF7DDFB00EBC00101EBAB
:10F52000001061684900B0FBF1F0B0FBF5F06FF03E
:10F530001801484307EB800108EBC100B0FBF5F070
:10F5400000F0F80006EB4006FDF7C4FB00EBC0013D
:10F5500001EB001061684900B0FBF1F7FDF7BAFB61
:10F560003CE055E0FDF7A0FB00EBC00101EB001013
:10F5700061684900B0FBF1F0B0FBF5F00601FDF762
:10F5800093FB00EBC00101EB001061684900B0FB88
:10F59000F1F7FDF789FB00EBC00101EB001061689A
:10F5A0004900B0FBF1F0B0FBF5F06FF018014843F3
:10F5B00007EB800108EBC100B0FBF5F000F0F800AC
:10F5C00006EB4006FDF770FB00EBC00101EB0010FD
:10F5D00061684900B0FBF1F7FDF766FB00EBC00185
:10F5E00001EB001061684900B0FBF1F0B0FBF5F0F1
:10F5F0006FF01801484307EB800108EBC100B0FB36
:10F60000F5F000F00700216830448860BDE8F08123
:10F61000FDF74AFB00EBC00101EB001061688900B7
:10F62000B0FBF1F6FDF740FB00EBC00101EB001071
:10F6300061688900B0FBF1F0B0FBF5F06FF01801E4
:10F64000484306EB800108EB0110B0FBF5F000F039
:10F65000F006FDF729FB00EBC00101EB001061682B
:10F660008900B0FBF1F0B0FBF5F006EB0016FDF7FA
:10F670001BFB00EBC00101EB001061688900B0FBCF
:10F68000F1F7FDF711FB00EBC00101EB0010616821
:10F690008900B0FBF1F0B0FBF5F06FF018014843C2
:10F6A00007EB800108EB0110B0FBF5F000F00F0054
:10F6B000A9E70000A137A0002E2E2F4472697665BD
:10F6C00072732F53544D3332463478785F48414C2F
:10F6D0005F4472697665722F5372632F73746D3352
:10F6E00032663478785F68616C5F756172742E631E
:10F6F00000000000001401400010014090F8391093
:10F70000212901D0022070478168B1F5805F016A2C
:10F710000BD04A1C0262026809785160C18C491EF4
:10F720000904090CC1840ED017E009880268C1F3EE
:10F730000801516001690029016A02D0491C016277
:10F74000ECE7891CFBE70168CA6822F08002CA6006
:10F750000068C16841F04001C160002070472DE998
:10F76000F0471D4690460E460446FDF717F807463B
:10F770005FEA08004FF000094FF0200808D032E09F
:10F78000681C05D095B1FDF709F8C01BA8420DD83B
:10F790002068006836EA0000F2D129E0681C22D017
:10F7A00025B1FCF7FBFFC01BA8421CD92068C1682B
:10F7B00021F08001C1602068C16821F02001C16092
:10F7C0002068C16821F48071C1602068416921F01E
:10F7D0000101416184F8398084F83A8084F83890D6
:10F7E0000320BDE8F0872068006836EA0000D5D025
:10F7F0000020F6E70148FEF798BD00003801002020
:10F8000030B585B00F48FEF747FD04200124CDE94F
:10F8100000040320CDE902400B4D69462846FCF761
:10F82000FBFD012204212846FCF782FF08200090FE
:10F830000020CDE9010469462846FCF7EDFD05B03E
:10F8400030BD000078010020000002400FB4054BDD
:10F8500010B503A9044A029800F018F810BC5DF82E
:10F8600014FB0000790001087800002002E008C8BD
:10F87000121F08C1002AFAD170477047002001E02A
:10F8800001C1121F002AFBD1704700002DE9FF4F74
:10F890008DB00F460546002606E025280BD0DDE991
:10F8A0000F1290476D1C761C28780028F5D111B0F6
:10F8B0003046BDE8F08F0024A246A1460122EC4963
:10F8C00000E0044315F8013F203B02FA03F0084230
:10F8D000F7D128782A2810D06FF02F022878A0F1CD
:10F8E0003001092914D80AEB8A0102EB410144F0E6
:10F8F000020400EB010A6D1CF0E701CF5FEA000A89
:10F9000003D544F40054CAF1000A44F002046D1C0B
:10F9100028782E2817D115F8010F44F004042A285E
:10F920000ED06FF02F022878A0F1300109290AD8F3
:10F9300009EB890102EB410100EB01096D1CF2E7C3
:10F9400057F8049B6D1C28786C280FD006DC4C28D7
:10F9500017D068280DD06A2814D104E0742810D07C
:10F960007A280FD10DE044F400140AE044F4801426
:10F9700001E044F440146978814202D104F5801416
:10F980006D1C6D1C2A786E2A1FD00CDC632A31D0C6
:10F9900004DC002A8BD0582A11D1A3E0642A68D055
:10F9A000692A0CD165E0732A2ED004DC6F2A73D04B
:10F9B000702A04D19BE0752A6FD0782A6ED0104649
:10F9C000DDE90F129047761C50E1C4F30250022883
:10F9D00006D0032809D0042801CF09D0066045E1EC
:10F9E00001CFF117C0E9006140E101CF06803DE1A0
:10F9F00006703BE117F8040B8DF8000000208DF82D
:10FA00000100EB46012003E057F804BB4FF0FF3044
:10FA100061074FF0000102D40DE008F101018846B2
:10FA200049450FDA8045F8DB1BF808100029F4D1AE
:10FA300008E008F1010188468142FADB1BF8081052
:10FA40000029F6D1DDE90F23AAEB08008146214603
:10FA500000F036F9304400EB080604E0DDE90F124F
:10FA60001BF8010B9047B8F10108F7D22146484630
:10FA7000F7E00A21C4F302534FF0000B0891022B68
:10FA800004D001CFC117032B09D00AE0FF1D27F0D6
:10FA90000707F7E8020108E032E01FE020E000B2CB
:10FAA000C117042B01D140B2C117031E71F100032D
:10FAB00007DA4FF0000CD0EB0C006CEB01012D23AA
:10FAC00002E0230504D52B238DF82430012303E025
:10FAD000E30701D02023F7E7984658E00A2110E019
:10FAE00010210EE010204FF0000B08900CE01021C8
:10FAF0004FF0000B44F004044FF00809089103E0B4
:10FB000008214FF0000B0891C4F30253022B04D0DC
:10FB100001CF0021032B06D006E0FF1D27F00707C9
:10FB2000F7E8020103E080B2042B00D1C0B24FF02D
:10FB3000000823072BD5702A07D0DDF820C08CF0F1
:10FB4000100C5CEA0B0C05D00EE040238DF824303D
:10FB5000012308E050EA010306D030238DF8243059
:10FB60008DF8252002239846DDF820C08CF0080C83
:10FB70005CEA0B0C0BD150EA010301D1630706D5F7
:10FB800030238DF824304FF00108A9F10109582ADB
:10FB900004D038A20B9208AA0A920BE03AA2F9E725
:10FBA0005B46089AFCF714FB0B9B9B5C0A9A521E5F
:10FBB0000A92137050EA0102F2D10A98ADEB0000EC
:10FBC00000F1200B600702D524F4803401E04FF0EF
:10FBD0000109D94502DDA9EB0B0000E0002000EB94
:10FBE0000B0141440890AAEB010AE00306D4DDE9C9
:10FBF0000F232146504600F063F806444FF00009F9
:10FC000008E009A911F80900DDE90F12904709F190
:10FC10000109761CC145F4DBE0030CD5DDE90F23B7
:10FC20002146504600F04CF8064404E0DDE90F128E
:10FC300030209047761C0899481E08900029F5DC72
:10FC400008E00A980A990078491C0A91DDE90F1228
:10FC50009047761CBBF10001ABF1010BF1DC2146B2
:10FC60005046DDE90F2300F019F806446D1C1BE631
:10FC70000928010030313233343536373839616282
:10FC80006364656600000000303132333435363746
:10FC90003839414243444546000000002DE9F04117
:10FCA000044600251E461746880404D405E039465C
:10FCB0002020B0476D1C641EF9D52846BDE8F081B0
:10FCC0002DE9F041044600251E469046C80301D5A3
:10FCD000302700E02027880404D505E04146384657
:10FCE000B0476D1C641EF9D52846BDE8F081704709
:10FCF00010B50A7803464AB1092A10461DD2401EA3
:10FD0000C4B20320A0EB5400185C4FE000798207D6
:10FD100006D50122C00701D0522053E0542051E003
:10FD20000622C00701D072204CE074204AE000098E
:10FD30003EE0373041E030303FE00A280CD25C79B9
:10FD400004F00F00092801D9373000E03030ECB161
:10FD50001B79DB071AD130E01A2A19D2A2F10A0066
:10FD6000C4B203EB5400E407807900D1000900F02D
:10FD70000F00092801D9373000E03030521CD2B2D0
:10FD80005C79A2F10A03B3EB440F1BD11A2219E0EC
:10FD90000D480078A0B11E2A12D2A2F11A00C4B2F6
:10FDA000022C02D2D889000A00E0987BE307BED07B
:10FDB00000F00F000928BED9BBE7521CD2B201E007
:10FDC0000D20FF220A7010BD4E000020034610B522
:10FDD0000020024604E09C5C521C2044C0B2D2B217
:10FDE0008A42F8D310BD0000014800887047000027
:10FDF0004C00002070B50D48FDF7A4FE0B4C4FF0F1
:10FE00008040002520604FF4FA70C4E90105C82045
:10FE1000C4E903052046FDF7D5FC20684562044887
:10FE200005802046BDE87040FDF7D6BDB801002032
:10FE30004C0000202DE9F843054601786B484FF04F
:10FE400000084FF00109442905D0642976D180F8D3
:10FE50000080032402E080F80090082421466A46CE
:10FE6000681C01F071F900287ED061490098086093
:10FE700028196A460121401C01F066F9002873D058
:10FE80005C4E009830700027A41C1DE004EB470076
:10FE900028446A460221401C01F056F9002863D02C
:10FEA00055490098C85530786A4604EB400000EB8D
:10FEB000470028440221401C01F046F900287ED06A
:10FEC0004E490098C8557F1C30788742DEDB307879
:10FED00004EB800028444078672806D0307804EB93
:10FEE000800028444078472868D1307804EB8000AF
:10FEF00028444178424867290AD049460170307841
:10FF0000641C04EB800028444078702856D101E03E
:10FF10004146F3E7307804EB8007BF1C00E07F1C0C
:10FF2000E85D752801D00028F9D12819DFF8D480C0
:10FF300010F8010C732802D053283DD03EE032491E
:10FF400081F80090E85D002839D0307804EB80001B
:10FF5000381A801EC1B230786A4604EB800028440B
:10FF6000801C01F0F1F800E029E0002827D000987B
:10FF7000C8F800000024254E17F1010707EB4400E4
:10FF800028446A46022101F0DFF8002817D00098C3
:10FF90003055641C082CF1DB1037E85D6D280DD15D
:10FFA000E8196A460221401C01F0CEF8002806D06C
:10FFB00017490098087017E0E85D10B10020BDE80F
:10FFC000F883307804EB8000381A801EC1B2307894
:10FFD0006A4604EB80002844801C01F0B5F8002834
:10FFE000EDD00098C8F800000120E8E704000020E8
:10FFF0000C000020030000201F000020270000202C
:020000040801F1
:10000000060000201000002007000020370000201C
:100010000900002000EB400081004FF0E02041612A
:1000200000218161012202610269D30701D0D2035C
:10003000FAD501618161704705484178002905D1F1
:100040000121417000220348FCF772BB7047000099
:10005000410000200000024005480178002906D137
:1000600001210170002202210248FCF761BB7047A8
:10007000410000200000024013B54FF6FF7301223B
:1000800069460348FEF718FBFFF7E6FF00981CBD22
:1000900038010020F0B5304A907902F12F01012596
:1000A00002F12704A1F1100398B1012810D1D078F2
:1000B000084410F8010CD678264416F8016C401C50
:1000C000B042D0782AD8084410F8011D491C0170AC
:1000D000F0BD08782678401CB04203D80878401C50
:1000E0000870F0BD1878087001200FE01E5C275CD6
:1000F000BE420AD00E5C275C761CBE4203D80B5C65
:100100005B1C0B5405E01E5C0E54401CD678B042BC
:10011000ECDBD1788842E4D15571F0BD184410F879
:10012000010CD6780E4406F8010CD078801EF3D46A
:100130001E5C275CBE420CD00E5C275C761CBE4267
:1001400005D80B5C5B1C0B540028E5DBF0BD1E5C86
:100150000E54401EECD5DFE700000020F0B5FF2272
:1001600000231FE00024067880254FF0010C2E426A
:1001700008D0170601D5012700E01C270CEB42022E
:100180007A4006E000275FEA026E00D51D2787EA65
:100190004202641CE4B26D08D2B2082CE7D35B1CA7
:1001A000DBB2401C8B42DDDBD043C0B2F0BD0000AF
:1001B000F0B51B4985B00220087040200025CDE92C
:1001C0000005184F0124694602943846FCF724F9CB
:1001D0000820CDE900040326CDE9024669463846E9
:1001E000FCF71AF91020CDE90004CDE90246694672
:1001F0003846FCF711F92020CDE900056946029444
:100200003846FCF709F9002208213846FCF790FA35
:10021000002210213846FCF78BFA05B0F0BD000033
:1002200064000020000402402DE9F04781460025CB
:1002300001F0FAFA5E4E5F4C4FF4FA672068406AAC
:10024000B84205D820213046FCF746FA0128F5D1FE
:100250002068406AB84205D95648FDF713FC85204E
:10026000BDE8F08701F0E0FA2068406A212805D84F
:1002700020213046FCF730FA0128F5D02068406A8A
:10028000192875D3B0462068406A3F2805D8202138
:100290004046FCF721FA0128F5D12068406A33284E
:1002A00066D8002637467006060E01F0BDFA2068B3
:1002B000416A0829FCD920214046FCF70DFA0128A3
:1002C00002D046F0010609E02068406A302805D2D5
:1002D00020214046FCF700FA0128F5D02068406A4A
:1002E000302805D220214046FCF7F6F90128F5D147
:1002F0007F1C082FD7DB2068406A302804D209F819
:1003000005606D1CEDB2CCE7DFF8AC9000264FF035
:10031000010A27460122082144464046FCF708FA14
:10032000012210212046FCF703FA01F07DFAC6F104
:1003300007000AFA00F499F80100044201D00520F0
:1003400000E00C2039684A6A8242FCD90022082168
:100350004046FCF7EDF9002210214046FCF7E8F991
:1003600001F062FA99F80100044202D0112401E080
:1003700019E00A240120FFF74DFE05E02021404648
:10038000FCF7AAF901280ED03868406AA042F5D9D6
:10039000761C072EBEDD0748FDF774FB0C2D00D937
:1003A0000C2528465CE70348FDF76CFB832057E7E4
:1003B00000040240F4010020640000202DE9F05FF9
:1003C000654D0746002680788B4668700C2902DD53
:1003D0000420BDE8F09F614C012208212046FCF773
:1003E000A7F9012210212046FCF7A2F91E20FFF7F1
:1003F00011FE4FF47A70686020212046FCF76CF9FA
:100400000128686814D00028E3D00022082125467E
:100410002046FCF78DF9002210212846FCF788F9C8
:100420001220FFF7F7FD0024DFF834A1A94647E0CA
:100430000028E1D0E9E70025012208214846FCF721
:1004400077F9012210214846FCF772F901F0ECF926
:10045000395DC5F10702012000FA02F811EA080F20
:1004600001D0052200E00C22DAF800104B6A93421A
:10047000FCD9002208214846FCF75AF90022102135
:100480004846FCF755F901F0CFF9395D11EA080F3C
:1004900001D0112000E00A2080460120FFF7BAFDBC
:1004A00005E020214846FCF717F9012833D0DAF897
:1004B0000000416A4145F4D96D1C072DBCDD641C68
:1004C0005C45B8DB002208214D464846FCF730F970
:1004D00001F0AAF954462068406A3F2805D8202137
:1004E0002846FCF7F9F80128F5D12068406A3F2832
:1004F0002DD800277006060E01F096F92068416A93
:100500000929FCD920212846FCF7E6F8012807D064
:1005100046F001060EE01248FDF7B4FA032058E752
:100520002068406A3F2805D820212846FCF7D4F8E7
:100530000128F5D02068406A3F2805D820212846A8
:10054000FCF7CAF80128F5D17F1C082FD2DB04483C
:10055000FDF798FA30463CE76400002000040240B2
:10056000F4010020F0B51A4885B001240470402041
:100570000025CDE90005174F694602943846FBF780
:100580004BFF0820CDE900040326CDE90246694669
:100590003846FBF741FF1020CDE90004CDE90246C3
:1005A00069463846FBF738FF002210213846FCF731
:1005B000BFF82020CDE90005694602943846FBF7D4
:1005C0002BFF002208213846FCF7B2F805B0F0BD39
:1005D00064000020000402402DE9F047054601F0C8
:1005E00023F9454C454E09E02068406A642805D34C
:1005F0004148FDF747FA8520BDE8F08740213046A5
:10060000FCF76AF80128EFD101F00EF903E0206849
:10061000406AEF283FD240213046FCF75DF80128C0
:10062000F5D03548FDF72EFA2068406AA32832D36A
:1006300040213046FCF750F801280ED05FF000074B
:1006400001F0F2F84FF000084FEA060A4FF00809EF
:10065000287856464000287005E00127F0E720681A
:10066000406AA32842D240213046FCF735F80128E1
:1006700000D00020B842F2D04021B2463046FCF70C
:100680002BF8012809D000272068406A86B201F0C3
:10069000CBF8222E03D28320AEE70127F4E7602EA9
:1006A00009D240215046FCF717F8012803D02878DA
:1006B00040F001002870613E422E09D24021504690
:1006C000FCF70AF8012803D1287840F001002870CF
:1006D000A9F10100C0B25FEA0009B9D108F1010037
:1006E00000F0FF086D1CB8F10C0FAFD30248FDF706
:1006F000C9F9404680E70000F401002000040240F0
:100700002DE9F05F884681460C2902DD0420BDE812
:10071000F09F3E4C4FF47A703D4D4FF0010A6060FF
:1007200040212846FBF7D8FF0128606812D0002836
:10073000EDD000BF01F078F8012208212C462846B0
:10074000FBF7F6FF334D2868416AC829FCD3002621
:10075000A34646E00028E3D0ECE70024E043C007CE
:1007600025D0002208215846FBF7E2FF01F05CF893
:1007700019F80610C4F107020AFA02F0014201D08A
:10078000802700E040270220FFF744FC05E04021DD
:100790005846FBF7A1FF012804D02868406AB842F8
:1007A000F5D91AE01B48FDF76DF90320AFE70122E8
:1007B00008215846FBF7BCFF01F036F819F806107F
:1007C000C4F107020AFA02F0014201D0402000E021
:1007D000802029684A6A8242FCD9641C072CBDDD4E
:1007E000761C4645B9DB002208215846FBF7A0FFDE
:1007F00001F01AF828684FF48C71426A8A42FCD9D9
:100800000448FDF73FF9012081E700006400002063
:1008100000040240F4010020ADF52E7DFBF7CCFF73
:10082000FEF76EFCFEF748FAFEF7F4FAFEF776FBE9
:10083000FEF70CFBFEF72CFBFEF74CFB00F02EFA4C
:10084000E94C012202212046FBF772FF01221146EA
:100850002046FBF76DFFE5484FF00008444680F85E
:100860000080E34880F80080E248FDF70BF9E24899
:10087000FDF708F9E148FDF7AFF80122E049E1484A
:10088000FDF7C6FE0025AA462E468DF89C42FEF7CF
:100890007DFBDFF86CB3DFF87093ABF1080B01223E
:1008A000D749D848FDF7B4FE9BF800005C46002805
:1008B0007ED04FF40051D548FBF70EFF002877D1CA
:1008C000694601EB0A10074600F06CFA002878D060
:1008D00097E80F000DF5227C8CE80F009DF88E1232
:1008E0000120B0EB111F1DD1A298AA9003208DF812
:1008F000AD029DF88C02AAAA41089DF8AC0261F3F2
:1009000041008DF8AC0230208DF8AE020120414646
:100910001318401C99710828FADBAAA800F0E0FA25
:100920000028FAD0607840B3E07930B3A07820BBDB
:10093000607910BB9DF88D12A07A81421DD3B04F13
:100940000020A2AB2F370DE0012294F809C08240AD
:1009500012EA0C0F05D01A1817F800C092796245F8
:1009600002D1401C8142EFDC814206D1A8A0FEF7F3
:100970006DFF01206071FEF709FB28270AF10100D5
:10098000B0FBF7F107FB110A6D1C17E0684600EB9E
:100990000610A7A9FFF7ACF901469EA0FEF756FF87
:1009A0009DF89C02FF280AD18DF89C82761C00E0FD
:1009B00007E0B6FBF7F007FB10666D1EEDB2002DE9
:1009C000E4D16078E8B3A078D8BB6079C8BB894827
:1009D0000068406A616988426169A0EB010001D248
:1009E0008D490844216988422EDBE068A090E078B8
:1009F0008DF88502207928B19DF8840240F002002C
:100A00008DF884027E4A0020A0A9273203E0135CFF
:100A10000F18401CBB71E3789842F8DBA0A800F0E7
:100A20005FFA0028FAD000F09FFE72480068406A22
:100A30006061FFF72FFB607918B175A0FEF706FF24
:100A400000E001E0FEF7A2FA607810B37348007886
:100A500080B10120A0706748FDF714F8654847464B
:100A60000068C0F82480C4F814806DA0FEF7EEFE84
:100A70006A4807706B48007858B1474684F802808E
:100A800084F80180FEF782FA65A0FEF7DFFE654874
:100A90000770654C207830B1644801786448FEF7EF
:100AA00001F984F8008099F80000A8B16148FEF7C8
:100AB000DBF8071E10DD6B2156A0FEF7C7FE0024F1
:100AC00005E05C48015D5CA0FEF7C0FE641CBC4212
:100AD000F7DB5BA0FEF7BAFE5A4F387888B399F877
:100AE0000000012804D0022815D0032813D026E0E6
:100AF000434C68201034052120706A206070F1207A
:100B0000A0700120E07084F804802046FFF75EF9B1
:100B1000607106210FE03A4CC1201034042120708E
:100B200033206070F120A0703E20E0702046FFF777
:100B30004DF92071052132481030FEF7B3F887F8DF
:100B4000008041480078012822D14048FFF744FD49
:100B500004001DD020061BD4601E41B23B48FFF7A5
:100B6000FDFA3A49214411F8011C884210D16A214A
:100B700028A0FEF76BFE002705E03448C15D2EA0DB
:100B8000FEF764FE7F1CA742F7DB2DA0FEF75EFE9A
:100B90002F4C2078012806D002287FF480AEFDF784
:100BA000BDFF98B11CE04746ADF88082A0A8FDF7D4
:100BB000D9FD48B90120274989F800004FF47A602F
:100BC000086025A0FEF742FE277068E6032089F83A
:100BD000000020484FF47A6101601FA0FEF736FE46
:100BE00084F800805BE60000000002404100002025
:100BF0004200002030020020F4010020B801002053
:100C00000800002038010020610000200008024098
:100C1000750D00002563000040420F0051000020C8
:100C2000660D0000520000204F0000205000002000
:100C30006C0300206C020020253032780000000098
:100C40000D000000600000206400002078040020F7
:100C5000530000205C0000206F0D00002DE9F041E2
:100C60000D4C16460F460546002210212046FBF784
:100C70005FFD0520FEF7D6F92846FEF7D3F9384682
:100C8000FEF7D0F93046FEF7CDF92046BDE8F04139
:100C900001221021FBF74CBD0000024070B5641C1E
:100CA00014F0FF04FBD1244D002210212846FBF74D
:100CB0003FFDC020FEF7B6F9012210212846FBF7C0
:100CC00037FD641C14F0FF04FBD187210F2000F0D6
:100CD0001FFA0021602000F01BFA0021702000F0B4
:100CE00017FA0021202000F013FA0021212000F043
:100CF0000FFA0021222000F00BFA0021232000F03F
:100D000007FA0021242000F003FA0021252000F03A
:100D1000FFF90021262000F0FBF90021272000F038
:100D2000F7F903212B2000F0F3F9BDE8704003220E
:100D30009A21C12000F0DAB90000024070B50C4DD4
:100D40000446002210212846FBF7F2FC0320FEF7A0
:100D500069F92046FEF766F9FF20FEF763F90446BD
:100D6000012210212846FBF7E3FC204670BD00005D
:100D70000000024070B50A4D002210212846FBF702
:100D8000D7FCA020FEF74EF9FF20FEF74BF90446F2
:100D9000012210212846FBF7CBFC204670BD000045
:100DA000000002402DE9F041044600F081F80546BC
:100DB000400601D5002602E028063AD50426FFF7B2
:100DC00013F8E0812079E90861F30000290961F353
:100DD0004100DFF8D8802071002210214046FBF747
:100DE000A7FC46F09000FEF71DF9207980074FF030
:100DF000FF0021D5FEF716F940052060FF20FEF721
:100E000011F900F0E002216800F0030041EA4231EC
:100E100041EA00402060FF20FEF704F9216841EA22
:100E200000202060FF20FEF7FDF8216808432060C5
:100E300013E00020BDE8F081FEF7F4F8C000206068
:100E4000FF20FEF7EFF8216841EA50102060FF20F4
:100E5000FEF7E8F8FF20FEF7E5F8FF20FEF7E2F8DE
:100E600000F00F0767712079C0070FD1082F02D952
:100E70000827002501E0002506E0FF20FEF7D2F854
:100E800061196D1C8871EDB2BD42F6D301221021AB
:100E90004046FBF74DFC36B1022100222C20FFF723
:100EA000DDFE0120C6E70121F7E700000000024057
:100EB00070B50A4D002210212846FBF739FCB020FE
:100EC000FEF7B0F8FF20FEF7ADF80446012210212E
:100ED0002846FBF72DFC204670BD000000000240B4
:100EE0002DE9F0470446FFF745FF6779082F00D941
:100EF000082700F05400DFF81881142819D005DC09
:100F000068B1042815D0102806D10FE040280AD077
:100F1000442808D0502809D00020BDE8F08750268A
:100F2000042503210BE0402602250AE03026002597
:100F300007E0502698F80010042539B3491E88F8B8
:100F40000010DFF8D090002210214846FBF7F0FB9C
:100F500045F04000FEF766F82079800722D520682A
:100F6000C0F34750FEF75EF82068E02101EA5031F7
:100F7000C0F30140014341F00800FEF753F8208818
:100F8000C0F30720FEF74EF8207819E0032211463F
:100F90004020FFF763FE032211463020FFF75EFE7C
:100FA0000221CCE72088C0F3C700FEF73BF8207889
:100FB0004007000EFEF736F80020FEF733F8002059
:100FC000FEF730F82079C007607904D040F0400087
:100FD000FEF728F80BE0FEF725F8002505E060197C
:100FE0008079FEF71FF86D1CEDB2BD42F7D30122E8
:100FF00010214846FBF79CFB0A20FFF70BF898F8F6
:10100000000040F00801304600F082F8012084E73B
:1010100040000020000002402DE9F0410C46074648
:1010200001461D461646002000F072F804F0E00468
:101030002146012000F06CF83946042000F068F8E1
:1010400044F00801052000F063F83146082000F064
:101050005FF805F0E0042146092000F059F8314618
:10106000102000F055F844F00801112000F050F86D
:101070000021142000F04CF80021152000F048F861
:101080000021182000F044F8BDE8F04100211920AB
:1010900000F03EB82DE9F0410F46C043C1B21D46F5
:1010A0001646202000F034F8E02424EA070121202D
:1010B00000F02EF80021222000F02AF80021232041
:1010C00000F026F8F043C1B2242000F021F824EA11
:1010D0000501252000F01CF80021262000F018F85A
:1010E000BDE8F0410021272000F012B870B50C4691
:1010F000014615462A2000F00BF82146292000F071
:1011000007F82946BDE87040282000F001B800002B
:1011100070B50C4C0E460546002210212046FBF708
:1011200007FB0220FDF77EFF2846FDF77BFF3046D8
:10113000FDF778FF2046BDE8704001221021FBF743
:10114000F7BA00000000024030B5002313601BE036
:101150000378F3B113681C0114600378A3F1300520
:10116000092D02D82344303B0CE0A3F14105052DA5
:1011700002D82344373B05E0A3F16105052D08D8CB
:101180002344573B401C1360491EC9B2E0D20120E2
:1011900030BD002030BD00002DE9FF5F054600781E
:1011A0000724FA4FFA4E4FF001084FF00009572874
:1011B0007ED010DCA0F1410016287AD2DFE800F0E2
:1011C000F279D07979F88479797979C6F0EFB079C4
:1011D00079E02EE0EEED6C286CD012DCDFF8B4A3E1
:1011E000DFF8B4B3662866D006DC5A287BD06128C5
:1011F0007AD062285DD1DFE16A2876D06B28F9D1F8
:10120000FCE173283CD004DC6D286FD07228F1D14A
:10121000B6E074286BD07628ECD19FE130780028B6
:10122000E8D1687830380928C7D2DFE800F005092E
:101230000F13161A1E2225000622AD21FB2002E004
:101240000622AD21DD20FFF751FF7EE10622AD2110
:10125000CB20F8E70622AD2101E00422A421C5201D
:10126000F1E70422A421C220EDE703229A21C12044
:10127000E9E70422A32101E003229A21C020E2E74A
:1012800030780028B6D16A460221681CFFF75CFF5F
:1012900000280ED001AA0221E81CFFF755FF002804
:1012A000F7D002AA0221681DFFF74EFF002803E0D5
:1012B0001EE06AE13FE098E0EBD00298C2B20198EC
:1012C000C1B20098C0B2BEE73878002892D16A4611
:1012D0000221681CFFF738FF0028DAD00098C0B25E
:1012E000FFF72CFD37E1CDE00EE2D6E1DCE047E090
:1012F000387800288BD16A460221681CFFF724FF4A
:101300000028C6D001AA0221E81CFFF71DFF002813
:10131000BFD00198C1B20098C0B2FFF7F9FE14E146
:1013200030780028AED10022E0210F20FFF796FC94
:10133000FEF760FD07E030780028A3D14022E021CD
:101340000F20FFF78BFC40463070FEE0307800281D
:1013500098D16022E0210F20FFF780FC0220F3E704
:10136000307838B18022E0210F20FFF777FC86F833
:1013700000900D24387800288BD0FDF707FEB9E1E6
:1013800030780128FBD1284600F058FA0028F6D022
:1013900028785A2807D25A2106E0D8E0A6E1E8E0EA
:1013A000ACE005E0AEE17A217CA0FEF74FFACCE09C
:1013B00038780028E3D12D20FFF7C0FC0024C107B6
:1013C00000D00424810901D044F0080410F0180F63
:1013D00001D044F02004800601D544F08004462169
:1013E0006EA0FEF733FA2046B5E030780128C6D16A
:1013F00068786B497A2808D0502810D0722814D009
:1014000064281ED044281CD074E138780028B6D057
:1014100008780028B3D18AF80380BDE8FF9F3878A8
:101420000028ACD08AF80480F7E738780028A6D0E6
:1014300008780028A3D038780028A0D081F8009040
:1014400018E0387800289AD18AF803908AF8049036
:10145000681CFEF7EFFC002891D00020514A524B47
:10146000524902E0145C1C54401C0C78A042F9DB89
:1014700087F800804E48FCF757FA0D244DA0FEF780
:10148000E5F937E138780028BED16A460121681CA9
:10149000FFF75AFE0028B7D0009808B1012100E0FC
:1014A00000218AF8001050E0307800286DD16A469B
:1014B0000221681CFFF748FE002866D001AA02211D
:1014C000E81CFFF741FE00285FD002AA0221681D38
:1014D000FFF73AFE002858D003AA0221E81DFFF7C3
:1014E00033FE002851D00398C3B20298C2B20198CB
:1014F000C1B20098C0B2FFF7CDFD26E030780028D9
:1015000043D16A460221681CFFF71EFE00283CD02A
:1015100001AA0221E81CFFF717FE002835D002AA15
:101520000221681DFFF710FE78B303AA0221E81D0F
:10153000FFF70AFE48B30398C3B20298C2B20198FB
:10154000C1B20098C0B2FFF767FD0D24D2E0387831
:10155000D8B9562105E000F0EDF8F6E73878A0B9E3
:1015600076210EA0FEF772F9012000F0E3F81020BA
:10157000F1E7387848B94E2108A0FEF767F9042151
:101580004FF6FF7000F034F9DFE771E00100002052
:10159000000000204E0000206400002025630000B1
:1015A000020000201F0000202F0000200300002068
:1015B0003002002066000000FDF7E8FC56484C466B
:1015C000002280F800908BF8009054488AF805902B
:1015D0008AF80190C0F8009051484FF4807180F86B
:1015E00000905048FBF7A4F830780028ADD0802256
:1015F000E0210F20FFF732FB3470A6E79AF80100D4
:101600005646A8BB387898BB434869784FF47A6748
:10161000007864292DD004DC492931D0612969D1B1
:1016200004E069292CD06B2964D129E03E49AA78CD
:101630004979492A0AD0692A02D06B2A5AD10CE08A
:10164000012857D0A1B98AF80580E6E6032851D0D1
:1016500071B902208AF80500DFE62F4C022805D078
:10166000FDF7E4FA022020702C4807606F219BE60A
:101670002DE0294981F80090294981F8009064E71C
:1016800028B3A81CFDF71EFA08B32549234886F89D
:10169000018081F80090076026E03878B8B92348C7
:1016A00069780078702902D0762923D110E05E464F
:1016B000022804D0FEF77CFD307802281AD11CA045
:1016C000FEF7C4F8A81CFDF779F90028BDD111E098
:1016D0005E46012804D0FEF745FF3078012809D185
:1016E000A81CFDF7BDF928B178215DE688F31388C1
:1016F000FBF788F92146AFF25C1004B0BDE8F05F5B
:10170000FEF7A4B8002200E001224FF480710548E2
:10171000FBF70EF819E70000610000205C000020D4
:1017200060000020000402404E0000206400002001
:10173000780D000010B501090446092901D9373197
:1017400000E0303107A0FEF781F804F00F0109290D
:1017500001D9373100E03031BDE8104001A0FEF77B
:1017600075B800002563000070B514480078144C6B
:1017700030B1472113A0FEF769F8216812A005E0F7
:10178000672110A0FEF762F8216811A0FEF75EF84D
:10179000114D297811A0FEF759F80024104E04E0ED
:1017A000315D10A0FEF752F8641C28788442F7DB04
:1017B000BDE870400DA0FEF749B80000040000200D
:1017C0000C00002025630000253038780000000060
:1017D0002530337800000000030000202578000049
:1017E0002F00002025303278000000000D0000009E
:1017F00000B585B000226B460DF8012009E000BF5E
:1018000000F00F02092A01D9373200E030325A5471
:101810000009491EC9B2F3D2194602A0FEF716F814
:1018200005B000BD25730000034900200968486227
:101830000148FCF779B80000F4010020F0B5054636
:10184000007885B0722810D052280ED09DF808007C
:1018500020F001008DF8080029785A290AD240F0BA
:1018600002008DF80800082709E09DF8080040F004
:101870000100EFE720F002008DF8080003276A4618
:101880003946681CFFF760FC00282DD000980190B5
:10189000E8196A460121401CFFF756FC002823D0B6
:1018A0000098C6B28DF809609DF80800C00718D1ED
:1018B000082E02D90826002401E000240FE007EBDF
:1018C000440028446A460221801CFFF73DFC0028A2
:1018D0000AD001A921440098641C8871E4B2B44282
:1018E000EDD301A8FFF7FCFA05B0F0BD0000000041
:1018F0000102030401020304060708091C19010878
:10190000000000207C0000006CF800089819010815
:101910007C0000200C0600007CF80008000000009D
:1019200000000000000000000000000000000000B7
:1019300000000000000000000000000000000000A7
:101940000000000000000000000000000000000097
:101950000000000000000000000000000300000084
:101960000000000000000000000000000000000077
:101970000200000000000000000000000000000065
:101980000000000000000000000000000000000057
:081990000024F4000000000037
:040000050800C19995
:00000001FF
